{
  "_format": "hh-sol-artifact-1",
  "contractName": "MySet",
  "sourceName": "contracts/facets/MySet.sol",
  "abi": [
    {
      "inputs": [],
      "stateMutability": "nonpayable",
      "type": "constructor"
    },
    {
      "anonymous": false,
      "inputs": [
        {
          "indexed": true,
          "internalType": "address",
          "name": "account",
          "type": "address"
        },
        {
          "indexed": true,
          "internalType": "address",
          "name": "operator",
          "type": "address"
        },
        {
          "indexed": false,
          "internalType": "bool",
          "name": "approved",
          "type": "bool"
        }
      ],
      "name": "ApprovalForAll",
      "type": "event"
    },
    {
      "anonymous": false,
      "inputs": [
        {
          "indexed": true,
          "internalType": "address",
          "name": "operator",
          "type": "address"
        },
        {
          "indexed": true,
          "internalType": "address",
          "name": "from",
          "type": "address"
        },
        {
          "indexed": true,
          "internalType": "address",
          "name": "to",
          "type": "address"
        },
        {
          "indexed": false,
          "internalType": "uint256[]",
          "name": "ids",
          "type": "uint256[]"
        },
        {
          "indexed": false,
          "internalType": "uint256[]",
          "name": "values",
          "type": "uint256[]"
        }
      ],
      "name": "TransferBatch",
      "type": "event"
    },
    {
      "anonymous": false,
      "inputs": [
        {
          "indexed": true,
          "internalType": "address",
          "name": "operator",
          "type": "address"
        },
        {
          "indexed": true,
          "internalType": "address",
          "name": "from",
          "type": "address"
        },
        {
          "indexed": true,
          "internalType": "address",
          "name": "to",
          "type": "address"
        },
        {
          "indexed": false,
          "internalType": "uint256",
          "name": "id",
          "type": "uint256"
        },
        {
          "indexed": false,
          "internalType": "uint256",
          "name": "value",
          "type": "uint256"
        }
      ],
      "name": "TransferSingle",
      "type": "event"
    },
    {
      "anonymous": false,
      "inputs": [
        {
          "indexed": false,
          "internalType": "string",
          "name": "value",
          "type": "string"
        },
        {
          "indexed": true,
          "internalType": "uint256",
          "name": "tokenId",
          "type": "uint256"
        }
      ],
      "name": "URI",
      "type": "event"
    },
    {
      "inputs": [
        {
          "internalType": "address",
          "name": "account",
          "type": "address"
        },
        {
          "internalType": "uint256",
          "name": "id",
          "type": "uint256"
        },
        {
          "internalType": "uint256",
          "name": "amount",
          "type": "uint256"
        }
      ],
      "name": "__burn",
      "outputs": [],
      "stateMutability": "nonpayable",
      "type": "function"
    },
    {
      "inputs": [
        {
          "internalType": "address",
          "name": "account",
          "type": "address"
        },
        {
          "internalType": "uint256",
          "name": "id",
          "type": "uint256"
        },
        {
          "internalType": "uint256",
          "name": "amount",
          "type": "uint256"
        }
      ],
      "name": "__mint",
      "outputs": [],
      "stateMutability": "nonpayable",
      "type": "function"
    },
    {
      "inputs": [
        {
          "internalType": "uint256",
          "name": "id",
          "type": "uint256"
        }
      ],
      "name": "accountsByToken",
      "outputs": [
        {
          "internalType": "address[]",
          "name": "",
          "type": "address[]"
        }
      ],
      "stateMutability": "view",
      "type": "function"
    },
    {
      "inputs": [
        {
          "internalType": "address",
          "name": "account",
          "type": "address"
        },
        {
          "internalType": "uint256",
          "name": "id",
          "type": "uint256"
        }
      ],
      "name": "balanceOf",
      "outputs": [
        {
          "internalType": "uint256",
          "name": "",
          "type": "uint256"
        }
      ],
      "stateMutability": "view",
      "type": "function"
    },
    {
      "inputs": [
        {
          "internalType": "address[]",
          "name": "accounts",
          "type": "address[]"
        },
        {
          "internalType": "uint256[]",
          "name": "ids",
          "type": "uint256[]"
        }
      ],
      "name": "balanceOfBatch",
      "outputs": [
        {
          "internalType": "uint256[]",
          "name": "",
          "type": "uint256[]"
        }
      ],
      "stateMutability": "view",
      "type": "function"
    },
    {
      "inputs": [
        {
          "internalType": "address",
          "name": "_token",
          "type": "address"
        },
        {
          "internalType": "address",
          "name": "_recipient",
          "type": "address"
        },
        {
          "internalType": "uint256",
          "name": "_value",
          "type": "uint256"
        }
      ],
      "name": "deposit",
      "outputs": [],
      "stateMutability": "payable",
      "type": "function"
    },
    {
      "inputs": [
        {
          "internalType": "uint256",
          "name": "_id",
          "type": "uint256"
        }
      ],
      "name": "getIdAddress",
      "outputs": [
        {
          "internalType": "address",
          "name": "token",
          "type": "address"
        }
      ],
      "stateMutability": "view",
      "type": "function"
    },
    {
      "inputs": [],
      "name": "getNTokens",
      "outputs": [
        {
          "internalType": "uint256",
          "name": "",
          "type": "uint256"
        }
      ],
      "stateMutability": "view",
      "type": "function"
    },
    {
      "inputs": [
        {
          "internalType": "address",
          "name": "_token",
          "type": "address"
        }
      ],
      "name": "getTokenID",
      "outputs": [
        {
          "internalType": "uint256",
          "name": "tokenID",
          "type": "uint256"
        }
      ],
      "stateMutability": "view",
      "type": "function"
    },
    {
      "inputs": [],
      "name": "initERC1155",
      "outputs": [],
      "stateMutability": "nonpayable",
      "type": "function"
    },
    {
      "inputs": [
        {
          "internalType": "address",
          "name": "account",
          "type": "address"
        },
        {
          "internalType": "address",
          "name": "operator",
          "type": "address"
        }
      ],
      "name": "isApprovedForAll",
      "outputs": [
        {
          "internalType": "bool",
          "name": "",
          "type": "bool"
        }
      ],
      "stateMutability": "view",
      "type": "function"
    },
    {
      "inputs": [
        {
          "internalType": "address",
          "name": "from",
          "type": "address"
        },
        {
          "internalType": "address",
          "name": "to",
          "type": "address"
        },
        {
          "internalType": "uint256[]",
          "name": "ids",
          "type": "uint256[]"
        },
        {
          "internalType": "uint256[]",
          "name": "amounts",
          "type": "uint256[]"
        },
        {
          "internalType": "bytes",
          "name": "data",
          "type": "bytes"
        }
      ],
      "name": "safeBatchTransferFrom",
      "outputs": [],
      "stateMutability": "nonpayable",
      "type": "function"
    },
    {
      "inputs": [
        {
          "internalType": "address",
          "name": "from",
          "type": "address"
        },
        {
          "internalType": "address",
          "name": "to",
          "type": "address"
        },
        {
          "internalType": "uint256",
          "name": "id",
          "type": "uint256"
        },
        {
          "internalType": "uint256",
          "name": "amount",
          "type": "uint256"
        },
        {
          "internalType": "bytes",
          "name": "data",
          "type": "bytes"
        }
      ],
      "name": "safeTransferFrom",
      "outputs": [],
      "stateMutability": "nonpayable",
      "type": "function"
    },
    {
      "inputs": [
        {
          "internalType": "address",
          "name": "operator",
          "type": "address"
        },
        {
          "internalType": "bool",
          "name": "status",
          "type": "bool"
        }
      ],
      "name": "setApprovalForAll",
      "outputs": [],
      "stateMutability": "nonpayable",
      "type": "function"
    },
    {
      "inputs": [
        {
          "internalType": "bytes4",
          "name": "interfaceId",
          "type": "bytes4"
        }
      ],
      "name": "supportsInterface",
      "outputs": [
        {
          "internalType": "bool",
          "name": "",
          "type": "bool"
        }
      ],
      "stateMutability": "view",
      "type": "function"
    },
    {
      "inputs": [
        {
          "internalType": "address",
          "name": "account",
          "type": "address"
        }
      ],
      "name": "tokensByAccount",
      "outputs": [
        {
          "internalType": "uint256[]",
          "name": "",
          "type": "uint256[]"
        }
      ],
      "stateMutability": "view",
      "type": "function"
    },
    {
      "inputs": [
        {
          "internalType": "uint256",
          "name": "id",
          "type": "uint256"
        }
      ],
      "name": "totalHolders",
      "outputs": [
        {
          "internalType": "uint256",
          "name": "",
          "type": "uint256"
        }
      ],
      "stateMutability": "view",
      "type": "function"
    },
    {
      "inputs": [
        {
          "internalType": "uint256",
          "name": "id",
          "type": "uint256"
        }
      ],
      "name": "totalSupply",
      "outputs": [
        {
          "internalType": "uint256",
          "name": "",
          "type": "uint256"
        }
      ],
      "stateMutability": "view",
      "type": "function"
    },
    {
      "inputs": [
        {
          "internalType": "uint256",
          "name": "tokenId",
          "type": "uint256"
        }
      ],
      "name": "uri",
      "outputs": [
        {
          "internalType": "string",
          "name": "",
          "type": "string"
        }
      ],
      "stateMutability": "view",
      "type": "function"
    },
    {
      "inputs": [
        {
          "internalType": "address",
          "name": "_token",
          "type": "address"
        },
        {
          "internalType": "address payable",
          "name": "_to",
          "type": "address"
        },
        {
          "internalType": "uint256",
          "name": "_value",
          "type": "uint256"
        }
      ],
      "name": "withdraw",
      "outputs": [],
      "stateMutability": "nonpayable",
      "type": "function"
    },
    {
      "stateMutability": "payable",
      "type": "receive"
    }
  ],
  "bytecode": "0x60806040523480156200001157600080fd5b50620000637fd9b67a260000000000000000000000000000000000000000000000000000000060016200004e6200006960201b620012511760201c565b6200009660201b6200127e179092919060201c565b620001f5565b6000807f326d0c59a7612f6a9919e2a8ee333c80ba689d8ba2634de89c85cbb04832e70590508091505090565b63ffffffff60e01b827bffffffffffffffffffffffffffffffffffffffffffffffffffffffff1916141562000102576040517f08c379a0000000000000000000000000000000000000000000000000000000008152600401620000f990620001d3565b60405180910390fd5b80836000016000847bffffffffffffffffffffffffffffffffffffffffffffffffffffffff19167bffffffffffffffffffffffffffffffffffffffffffffffffffffffff1916815260200190815260200160002060006101000a81548160ff021916908315150217905550505050565b600082825260208201905092915050565b7f4552433136353a20696e76616c696420696e7465726661636520696400000000600082015250565b6000620001bb601c8362000172565b9150620001c88262000183565b602082019050919050565b60006020820190508181036000830152620001ee81620001ac565b9050919050565b614df180620002056000396000f3fe6080604052600436106101225760003560e01c80637358e9a5116100a0578063bd85b03911610064578063bd85b03914610438578063c12e5c6814610475578063d9caed121461049e578063e985e9c5146104c7578063f242432a1461050457610135565b80637358e9a51461034e5780638340f5491461038b57806385bff2e7146103a75780639040a949146103e4578063a22cb4651461040f57610135565b80632eb2c2d6116100e75780632eb2c2d6146102455780634e1273f41461026e57806363f8071c146102ab5780636dcfd841146102e857806372b0589c1461032557610135565b8062fdd58e1461013a57806301a6bd881461017757806301ffc9a71461018e5780630e89341c146101cb57806313ba55df1461020857610135565b36610135576101336001333461052d565b005b600080fd5b34801561014657600080fd5b50610161600480360381019061015c9190612fa7565b61086e565b60405161016e9190612ff6565b60405180910390f35b34801561018357600080fd5b5061018c610882565b005b34801561019a57600080fd5b506101b560048036038101906101b09190613069565b610939565b6040516101c291906130b1565b60405180910390f35b3480156101d757600080fd5b506101f260048036038101906101ed91906130cc565b61095c565b6040516101ff9190613192565b60405180910390f35b34801561021457600080fd5b5061022f600480360381019061022a91906130cc565b610b1d565b60405161023c9190612ff6565b60405180910390f35b34801561025157600080fd5b5061026c600480360381019061026791906133b1565b610b2f565b005b34801561027a57600080fd5b5061029560048036038101906102909190613543565b610bc3565b6040516102a29190613679565b60405180910390f35b3480156102b757600080fd5b506102d260048036038101906102cd919061369b565b610db8565b6040516102df9190612ff6565b60405180910390f35b3480156102f457600080fd5b5061030f600480360381019061030a91906130cc565b610e53565b60405161031c9190613786565b60405180910390f35b34801561033157600080fd5b5061034c600480360381019061034791906137a8565b610e65565b005b34801561035a57600080fd5b50610375600480360381019061037091906130cc565b610e85565b604051610382919061380a565b60405180910390f35b6103a560048036038101906103a09190613825565b61052d565b005b3480156103b357600080fd5b506103ce60048036038101906103c9919061369b565b610f40565b6040516103db9190613679565b60405180910390f35b3480156103f057600080fd5b506103f9610f52565b6040516104069190612ff6565b60405180910390f35b34801561041b57600080fd5b50610436600480360381019061043191906138a4565b610f6a565b005b34801561044457600080fd5b5061045f600480360381019061045a91906130cc565b6110df565b60405161046c9190612ff6565b60405180910390f35b34801561048157600080fd5b5061049c600480360381019061049791906137a8565b6110f1565b005b3480156104aa57600080fd5b506104c560048036038101906104c09190613922565b611101565b005b3480156104d357600080fd5b506104ee60048036038101906104e99190613975565b611120565b6040516104fb91906130b1565b60405180910390f35b34801561051057600080fd5b5061052b600480360381019061052691906139b5565b6111bd565b005b6000610537611357565b9050600073ffffffffffffffffffffffffffffffffffffffff168373ffffffffffffffffffffffffffffffffffffffff1614156105a9576040517f08c379a00000000000000000000000000000000000000000000000000000000081526004016105a090613abe565b60405180910390fd5b6000600173ffffffffffffffffffffffffffffffffffffffff168573ffffffffffffffffffffffffffffffffffffffff16146108055760003414610622576040517f08c379a000000000000000000000000000000000000000000000000000000000815260040161061990613b50565b60405180910390fd5b8473ffffffffffffffffffffffffffffffffffffffff166323b872dd3330866040518463ffffffff1660e01b815260040161065f93929190613b70565b6020604051808303816000875af115801561067e573d6000803e3d6000fd5b505050506040513d601f19601f820116820180604052508101906106a29190613bbc565b506106ab611384565b6106ea576040517f08c379a00000000000000000000000000000000000000000000000000000000081526004016106e190613c5b565b60405180910390fd5b60008260010160008773ffffffffffffffffffffffffffffffffffffffff1673ffffffffffffffffffffffffffffffffffffffff16815260200190815260200160002054905060008114156107fb57600183600001600082825461074e9190613caa565b92505081905550826000015491508583600201600084815260200190815260200160002060006101000a81548173ffffffffffffffffffffffffffffffffffffffff021916908373ffffffffffffffffffffffffffffffffffffffff160217905550818360010160008873ffffffffffffffffffffffffffffffffffffffff1673ffffffffffffffffffffffffffffffffffffffff168152602001908152602001600020819055506107ff565b8091505b5061084c565b348314610847576040517f08c379a000000000000000000000000000000000000000000000000000000000815260040161083e90613d72565b60405180910390fd5b600190505b610867848285604051806020016040528060008152506113c2565b5050505050565b600061087a8383611546565b905092915050565b600061088c611357565b90506001816001016000600173ffffffffffffffffffffffffffffffffffffffff1673ffffffffffffffffffffffffffffffffffffffff1681526020019081526020016000208190555060018160020160006001815260200190815260200160002060006101000a81548173ffffffffffffffffffffffffffffffffffffffff021916908373ffffffffffffffffffffffffffffffffffffffff1602179055506001816000018190555050565b600061095582610947611251565b61161990919063ffffffff16565b9050919050565b60606000610968611684565b90506000816001016000858152602001908152602001600020805461098c90613dc1565b80601f01602080910402602001604051908101604052809291908181526020018280546109b890613dc1565b8015610a055780601f106109da57610100808354040283529160200191610a05565b820191906000526020600020905b8154815290600101906020018083116109e857829003601f168201915b505050505090506000826000018054610a1d90613dc1565b80601f0160208091040260200160405190810160405280929190818152602001828054610a4990613dc1565b8015610a965780601f10610a6b57610100808354040283529160200191610a96565b820191906000526020600020905b815481529060010190602001808311610a7957829003601f168201915b50505050509050600081511415610ab257819350505050610b18565b600082511115610ae8578082604051602001610acf929190613e2f565b6040516020818303038152906040529350505050610b18565b80610af2866116b1565b604051602001610b03929190613e2f565b60405160208183030381529060405293505050505b919050565b6000610b2882611812565b9050919050565b3373ffffffffffffffffffffffffffffffffffffffff168573ffffffffffffffffffffffffffffffffffffffff161480610b6f5750610b6e8533611120565b5b610bae576040517f08c379a0000000000000000000000000000000000000000000000000000000008152600401610ba590613ec5565b60405180910390fd5b610bbc33868686868661183f565b5050505050565b60608151835114610c09576040517f08c379a0000000000000000000000000000000000000000000000000000000008152600401610c0090613f57565b60405180910390fd5b6000610c13611863565b60000190506000845167ffffffffffffffff811115610c3557610c346131b9565b5b604051908082528060200260200182016040528015610c635781602001602082028036833780820191505090505b50905060005b8551811015610dac57600073ffffffffffffffffffffffffffffffffffffffff16868281518110610c9d57610c9c613f77565b5b602002602001015173ffffffffffffffffffffffffffffffffffffffff161415610cfc576040517f08c379a0000000000000000000000000000000000000000000000000000000008152600401610cf390614018565b60405180910390fd5b826000868381518110610d1257610d11613f77565b5b602002602001015181526020019081526020016000206000878381518110610d3d57610d3c613f77565b5b602002602001015173ffffffffffffffffffffffffffffffffffffffff1673ffffffffffffffffffffffffffffffffffffffff16815260200190815260200160002054828281518110610d9357610d92613f77565b5b6020026020010181815250508080600101915050610c69565b50809250505092915050565b600080610dc3611357565b90508060010160008473ffffffffffffffffffffffffffffffffffffffff1673ffffffffffffffffffffffffffffffffffffffff1681526020019081526020016000205491506000821415610e4d576040517f08c379a0000000000000000000000000000000000000000000000000000000008152600401610e44906140aa565b60405180910390fd5b50919050565b6060610e5e82611890565b9050919050565b610e80838383604051806020016040528060008152506113c2565b505050565b600080610e90611357565b905080600201600084815260200190815260200160002060009054906101000a900473ffffffffffffffffffffffffffffffffffffffff169150600073ffffffffffffffffffffffffffffffffffffffff168273ffffffffffffffffffffffffffffffffffffffff161415610f3a576040517f08c379a0000000000000000000000000000000000000000000000000000000008152600401610f319061413c565b60405180910390fd5b50919050565b6060610f4b82611992565b9050919050565b600080610f5d611357565b9050806000015491505090565b8173ffffffffffffffffffffffffffffffffffffffff163373ffffffffffffffffffffffffffffffffffffffff161415610fd9576040517f08c379a0000000000000000000000000000000000000000000000000000000008152600401610fd0906141ce565b60405180910390fd5b80610fe2611863565b60010160003373ffffffffffffffffffffffffffffffffffffffff1673ffffffffffffffffffffffffffffffffffffffff16815260200190815260200160002060008473ffffffffffffffffffffffffffffffffffffffff1673ffffffffffffffffffffffffffffffffffffffff16815260200190815260200160002060006101000a81548160ff0219169083151502179055508173ffffffffffffffffffffffffffffffffffffffff163373ffffffffffffffffffffffffffffffffffffffff167f17307eab39ab6107e8899845ad3d59bd9653f200f220920489ca2b5937696c31836040516110d391906130b1565b60405180910390a35050565b60006110ea82611a92565b9050919050565b6110fc838383611ab8565b505050565b600061110c84610db8565b905061111a33848385611cc8565b50505050565b600061112a611863565b60010160008473ffffffffffffffffffffffffffffffffffffffff1673ffffffffffffffffffffffffffffffffffffffff16815260200190815260200160002060008373ffffffffffffffffffffffffffffffffffffffff1673ffffffffffffffffffffffffffffffffffffffff16815260200190815260200160002060009054906101000a900460ff16905092915050565b3373ffffffffffffffffffffffffffffffffffffffff168573ffffffffffffffffffffffffffffffffffffffff1614806111fd57506111fc8533611120565b5b61123c576040517f08c379a000000000000000000000000000000000000000000000000000000000815260040161123390613ec5565b60405180910390fd5b61124a338686868686611f12565b5050505050565b6000807f326d0c59a7612f6a9919e2a8ee333c80ba689d8ba2634de89c85cbb04832e70590508091505090565b63ffffffff60e01b827bffffffffffffffffffffffffffffffffffffffffffffffffffffffff191614156112e7576040517f08c379a00000000000000000000000000000000000000000000000000000000081526004016112de9061423a565b60405180910390fd5b80836000016000847bffffffffffffffffffffffffffffffffffffffffffffffffffffffff19167bffffffffffffffffffffffffffffffffffffffffffffffffffffffff1916815260200190815260200160002060006101000a81548160ff021916908315150217905550505050565b6000807f368707ef3fbcb77fd3b764d64cd4fddf21c4968b53d2a63a4a04d7eabaa8b3d190508091505090565b600080600090503d600081146113a157602081146113aa576113b6565b600191506113b6565b60206000803e60005191505b50600081141591505090565b600073ffffffffffffffffffffffffffffffffffffffff168473ffffffffffffffffffffffffffffffffffffffff161415611432576040517f08c379a0000000000000000000000000000000000000000000000000000000008152600401611429906142cc565b60405180910390fd5b6114513360008661144287611f36565b61144b87611f36565b86611fb0565b8161145a611863565b600001600085815260200190815260200160002060008673ffffffffffffffffffffffffffffffffffffffff1673ffffffffffffffffffffffffffffffffffffffff16815260200190815260200160002060008282546114ba9190613caa565b925050819055508373ffffffffffffffffffffffffffffffffffffffff16600073ffffffffffffffffffffffffffffffffffffffff163373ffffffffffffffffffffffffffffffffffffffff167fc3d58168c5ae7397731d063d5bbf3d657854427343f4c083240f7aacaa2d0f6286866040516115389291906142ec565b60405180910390a450505050565b60008073ffffffffffffffffffffffffffffffffffffffff168373ffffffffffffffffffffffffffffffffffffffff1614156115b7576040517f08c379a00000000000000000000000000000000000000000000000000000000081526004016115ae90614387565b60405180910390fd5b6115bf611863565b600001600083815260200190815260200160002060008473ffffffffffffffffffffffffffffffffffffffff1673ffffffffffffffffffffffffffffffffffffffff16815260200190815260200160002054905092915050565b6000826000016000837bffffffffffffffffffffffffffffffffffffffffffffffffffffffff19167bffffffffffffffffffffffffffffffffffffffffffffffffffffffff1916815260200190815260200160002060009054906101000a900460ff16905092915050565b6000807f4281b61aefbe70b3d3f684b428efca5f33077bc240e76f2808f9177c307617f490508091505090565b606060008214156116f9576040518060400160405280600181526020017f3000000000000000000000000000000000000000000000000000000000000000815250905061180d565b600082905060005b6000821461172b578080611714906143a7565b915050600a82611724919061441f565b9150611701565b60008167ffffffffffffffff811115611747576117466131b9565b5b6040519080825280601f01601f1916602001820160405280156117795781602001600182028036833780820191505090505b5090505b60008514611806576001826117929190614450565b9150600a856117a19190614484565b60306117ad9190613caa565b60f81b8183815181106117c3576117c2613f77565b5b60200101907effffffffffffffffffffffffffffffffffffffffffffffffffffffffffffff1916908160001a905350600a856117ff919061441f565b945061177d565b8093505050505b919050565b600061183861181f611fc6565b6001016000848152602001908152602001600020611ff3565b9050919050565b61184d868686868686612008565b61185b86868686868661230e565b505050505050565b6000807f1799cf914cb0cb442ca7c7ac709ee40d0cb89e87351dc08d517fbda27d50c68b90508091505090565b6060600061189c611fc6565b6001016000848152602001908152602001600020905060006118bd82611ff3565b67ffffffffffffffff8111156118d6576118d56131b9565b5b6040519080825280602002602001820160405280156119045781602001602082028036833780820191505090505b50905060005b61191383611ff3565b8110156119875761192d81846124e690919063ffffffff16565b8282815181106119405761193f613f77565b5b602002602001019073ffffffffffffffffffffffffffffffffffffffff16908173ffffffffffffffffffffffffffffffffffffffff1681525050808060010191505061190a565b508092505050919050565b6060600061199e611fc6565b60020160008473ffffffffffffffffffffffffffffffffffffffff1673ffffffffffffffffffffffffffffffffffffffff168152602001908152602001600020905060006119eb82612500565b67ffffffffffffffff811115611a0457611a036131b9565b5b604051908082528060200260200182016040528015611a325781602001602082028036833780820191505090505b50905060005b611a4183612500565b811015611a8757611a5b818461251590919063ffffffff16565b828281518110611a6e57611a6d613f77565b5b6020026020010181815250508080600101915050611a38565b508092505050919050565b6000611a9c611fc6565b6000016000838152602001908152602001600020549050919050565b600073ffffffffffffffffffffffffffffffffffffffff168373ffffffffffffffffffffffffffffffffffffffff161415611b28576040517f08c379a0000000000000000000000000000000000000000000000000000000008152600401611b1f90614527565b60405180910390fd5b611b5633846000611b3886611f36565b611b4186611f36565b60405180602001604052806000815250611fb0565b6000611b60611863565b60000160008481526020019081526020016000209050818160008673ffffffffffffffffffffffffffffffffffffffff1673ffffffffffffffffffffffffffffffffffffffff168152602001908152602001600020541015611bf7576040517f08c379a0000000000000000000000000000000000000000000000000000000008152600401611bee906145b9565b60405180910390fd5b818160008673ffffffffffffffffffffffffffffffffffffffff1673ffffffffffffffffffffffffffffffffffffffff16815260200190815260200160002060008282540392505081905550600073ffffffffffffffffffffffffffffffffffffffff168473ffffffffffffffffffffffffffffffffffffffff163373ffffffffffffffffffffffffffffffffffffffff167fc3d58168c5ae7397731d063d5bbf3d657854427343f4c083240f7aacaa2d0f628686604051611cba9291906142ec565b60405180910390a450505050565b6000611cd2611357565b9050611cdf858484611ab8565b60018314611ded57600081600201600085815260200190815260200160002060009054906101000a900473ffffffffffffffffffffffffffffffffffffffff1690508073ffffffffffffffffffffffffffffffffffffffff1663a9059cbb86856040518363ffffffff1660e01b8152600401611d5c929190614638565b6020604051808303816000875af1158015611d7b573d6000803e3d6000fd5b505050506040513d601f19601f82011682018060405250810190611d9f9190613bbc565b50611da8611384565b611de7576040517f08c379a0000000000000000000000000000000000000000000000000000000008152600401611dde906146d3565b60405180910390fd5b50611f0b565b600073ffffffffffffffffffffffffffffffffffffffff168473ffffffffffffffffffffffffffffffffffffffff161415611e5d576040517f08c379a0000000000000000000000000000000000000000000000000000000008152600401611e5490614765565b60405180910390fd5b60008473ffffffffffffffffffffffffffffffffffffffff1683604051611e83906147b6565b60006040518083038185875af1925050503d8060008114611ec0576040519150601f19603f3d011682016040523d82523d6000602084013e611ec5565b606091505b5050905080611f09576040517f08c379a0000000000000000000000000000000000000000000000000000000008152600401611f00906146d3565b60405180910390fd5b505b5050505050565b611f2086868686868661252f565b611f2e8686868686866127a7565b505050505050565b60606000600167ffffffffffffffff811115611f5557611f546131b9565b5b604051908082528060200260200182016040528015611f835781602001602082028036833780820191505090505b5090508281600081518110611f9b57611f9a613f77565b5b60200260200101818152505080915050919050565b611fbe86868686868661297f565b505050505050565b6000807fb31c2c74f86ca3ce94d901f5f5bbe66f7161eec2f7b5aa0b75a86371436424ea90508091505090565b600061200182600001612995565b9050919050565b600073ffffffffffffffffffffffffffffffffffffffff168473ffffffffffffffffffffffffffffffffffffffff161415612078576040517f08c379a000000000000000000000000000000000000000000000000000000000815260040161206f9061483d565b60405180910390fd5b81518351146120bc576040517f08c379a00000000000000000000000000000000000000000000000000000000081526004016120b3906148cf565b60405180910390fd5b6120ca868686868686611fb0565b60006120d4611863565b600001905060005b84518110156122865760008582815181106120fa576120f9613f77565b5b60200260200101519050600085838151811061211957612118613f77565b5b60200260200101519050600084600084815260200190815260200160002060008b73ffffffffffffffffffffffffffffffffffffffff1673ffffffffffffffffffffffffffffffffffffffff168152602001908152602001600020549050818110156121ba576040517f08c379a00000000000000000000000000000000000000000000000000000000081526004016121b190614961565b60405180910390fd5b81810385600085815260200190815260200160002060008c73ffffffffffffffffffffffffffffffffffffffff1673ffffffffffffffffffffffffffffffffffffffff168152602001908152602001600020819055508380600101945050508084600084815260200190815260200160002060008a73ffffffffffffffffffffffffffffffffffffffff1673ffffffffffffffffffffffffffffffffffffffff16815260200190815260200160002060008282546122789190613caa565b9250508190555050506120dc565b508473ffffffffffffffffffffffffffffffffffffffff168673ffffffffffffffffffffffffffffffffffffffff168873ffffffffffffffffffffffffffffffffffffffff167f4a39dc06d4c0dbc64b70af90fd698a233a518aa5d07e595d983b8c0526c8f7fb87876040516122fd929190614981565b60405180910390a450505050505050565b61232d8473ffffffffffffffffffffffffffffffffffffffff166129a6565b156124de578373ffffffffffffffffffffffffffffffffffffffff1663bc197c8187878686866040518663ffffffff1660e01b8152600401612373959493929190614a0d565b6020604051808303816000875af19250505080156123af57506040513d601f19601f820116820180604052508101906123ac9190614a8a565b60015b612455576123bb614ac4565b806308c379a0141561241857506123d0614ae6565b806123db575061241a565b806040517f08c379a000000000000000000000000000000000000000000000000000000000815260040161240f9190613192565b60405180910390fd5b505b6040517f08c379a000000000000000000000000000000000000000000000000000000000815260040161244c90614bee565b60405180910390fd5b63bc197c8160e01b7bffffffffffffffffffffffffffffffffffffffffffffffffffffffff1916817bffffffffffffffffffffffffffffffffffffffffffffffffffffffff1916146124dc576040517f08c379a00000000000000000000000000000000000000000000000000000000081526004016124d390614c80565b60405180910390fd5b505b505050505050565b60006124f583600001836129b9565b60001c905092915050565b600061250e82600001612995565b9050919050565b600061252483600001836129b9565b60001c905092915050565b600073ffffffffffffffffffffffffffffffffffffffff168473ffffffffffffffffffffffffffffffffffffffff16141561259f576040517f08c379a00000000000000000000000000000000000000000000000000000000081526004016125969061483d565b60405180910390fd5b6125bd8686866125ae87611f36565b6125b787611f36565b86611fb0565b60006125c7611863565b6000019050600081600086815260200190815260200160002060008873ffffffffffffffffffffffffffffffffffffffff1673ffffffffffffffffffffffffffffffffffffffff16815260200190815260200160002054905083811015612663576040517f08c379a000000000000000000000000000000000000000000000000000000000815260040161265a90614961565b60405180910390fd5b83810382600087815260200190815260200160002060008973ffffffffffffffffffffffffffffffffffffffff1673ffffffffffffffffffffffffffffffffffffffff16815260200190815260200160002081905550508281600086815260200190815260200160002060008773ffffffffffffffffffffffffffffffffffffffff1673ffffffffffffffffffffffffffffffffffffffff16815260200190815260200160002060008282546127199190613caa565b925050819055508473ffffffffffffffffffffffffffffffffffffffff168673ffffffffffffffffffffffffffffffffffffffff168873ffffffffffffffffffffffffffffffffffffffff167fc3d58168c5ae7397731d063d5bbf3d657854427343f4c083240f7aacaa2d0f6287876040516127969291906142ec565b60405180910390a450505050505050565b6127c68473ffffffffffffffffffffffffffffffffffffffff166129a6565b15612977578373ffffffffffffffffffffffffffffffffffffffff1663f23a6e6187878686866040518663ffffffff1660e01b815260040161280c959493929190614ca0565b6020604051808303816000875af192505050801561284857506040513d601f19601f820116820180604052508101906128459190614a8a565b60015b6128ee57612854614ac4565b806308c379a014156128b15750612869614ae6565b8061287457506128b3565b806040517f08c379a00000000000000000000000000000000000000000000000000000000081526004016128a89190613192565b60405180910390fd5b505b6040517f08c379a00000000000000000000000000000000000000000000000000000000081526004016128e590614bee565b60405180910390fd5b63f23a6e6160e01b7bffffffffffffffffffffffffffffffffffffffffffffffffffffffff1916817bffffffffffffffffffffffffffffffffffffffffffffffffffffffff191614612975576040517f08c379a000000000000000000000000000000000000000000000000000000000815260040161296c90614c80565b60405180910390fd5b505b505050505050565b61298d868686868686612a2d565b505050505050565b600081600001805490509050919050565b600080823b905060008111915050919050565b600081836000018054905011612a04576040517f08c379a00000000000000000000000000000000000000000000000000000000081526004016129fb90614d6c565b60405180910390fd5b826000018281548110612a1a57612a19613f77565b5b9060005260206000200154905092915050565b612a3b868686868686612ce2565b8373ffffffffffffffffffffffffffffffffffffffff168573ffffffffffffffffffffffffffffffffffffffff1614612cda576000612a78611fc6565b9050600081600101905060008260020160008973ffffffffffffffffffffffffffffffffffffffff1673ffffffffffffffffffffffffffffffffffffffff168152602001908152602001600020905060008360020160008973ffffffffffffffffffffffffffffffffffffffff1673ffffffffffffffffffffffffffffffffffffffff168152602001908152602001600020905060005b8751811015612cd4576000878281518110612b2d57612b2c613f77565b5b602002602001015190506000811115612cc6576000898381518110612b5557612b54613f77565b5b60200260200101519050600073ffffffffffffffffffffffffffffffffffffffff168c73ffffffffffffffffffffffffffffffffffffffff161415612bc557818760000160008381526020019081526020016000206000828254612bb99190613caa565b92505081905550612c11565b81612bd08d83611546565b1415612c1057612bfa8c876000848152602001908152602001600020612cea90919063ffffffff16565b50612c0e8186612d1a90919063ffffffff16565b505b5b600073ffffffffffffffffffffffffffffffffffffffff168b73ffffffffffffffffffffffffffffffffffffffff161415612c7757818760000160008381526020019081526020016000206000828254612c6b9190614450565b92505081905550612cc4565b6000612c838c83611546565b1415612cc357612cad8b876000848152602001908152602001600020612d3490919063ffffffff16565b50612cc18185612d6490919063ffffffff16565b505b5b505b818060010192505050612b0f565b50505050505b505050505050565b505050505050565b6000612d12836000018373ffffffffffffffffffffffffffffffffffffffff1660001b612d7e565b905092915050565b6000612d2c836000018360001b612d7e565b905092915050565b6000612d5c836000018373ffffffffffffffffffffffffffffffffffffffff1660001b612e6c565b905092915050565b6000612d76836000018360001b612e6c565b905092915050565b60008083600101600084815260200190815260200160002054905060008114612e6057600084600001600186600001805490500381548110612dc357612dc2613f77565b5b9060005260206000200154905080856000016001840381548110612dea57612de9613f77565b5b906000526020600020018190555081856001016000838152602001908152602001600020819055505083600001805480612e2757612e26614d8c565b5b60019003818190600052602060002001600090559055836001016000848152602001908152602001600020600090556001915050612e66565b60009150505b92915050565b6000612e788383612edc565b612ed1578260000182908060018154018082558091505060019003906000526020600020016000909190919091505582600001805490508360010160008481526020019081526020016000208190555060019050612ed6565b600090505b92915050565b600080836001016000848152602001908152602001600020541415905092915050565b6000604051905090565b600080fd5b600080fd5b600073ffffffffffffffffffffffffffffffffffffffff82169050919050565b6000612f3e82612f13565b9050919050565b612f4e81612f33565b8114612f5957600080fd5b50565b600081359050612f6b81612f45565b92915050565b6000819050919050565b612f8481612f71565b8114612f8f57600080fd5b50565b600081359050612fa181612f7b565b92915050565b60008060408385031215612fbe57612fbd612f09565b5b6000612fcc85828601612f5c565b9250506020612fdd85828601612f92565b9150509250929050565b612ff081612f71565b82525050565b600060208201905061300b6000830184612fe7565b92915050565b60007fffffffff0000000000000000000000000000000000000000000000000000000082169050919050565b61304681613011565b811461305157600080fd5b50565b6000813590506130638161303d565b92915050565b60006020828403121561307f5761307e612f09565b5b600061308d84828501613054565b91505092915050565b60008115159050919050565b6130ab81613096565b82525050565b60006020820190506130c660008301846130a2565b92915050565b6000602082840312156130e2576130e1612f09565b5b60006130f084828501612f92565b91505092915050565b600081519050919050565b600082825260208201905092915050565b60005b83811015613133578082015181840152602081019050613118565b83811115613142576000848401525b50505050565b6000601f19601f8301169050919050565b6000613164826130f9565b61316e8185613104565b935061317e818560208601613115565b61318781613148565b840191505092915050565b600060208201905081810360008301526131ac8184613159565b905092915050565b600080fd5b7f4e487b7100000000000000000000000000000000000000000000000000000000600052604160045260246000fd5b6131f182613148565b810181811067ffffffffffffffff821117156132105761320f6131b9565b5b80604052505050565b6000613223612eff565b905061322f82826131e8565b919050565b600067ffffffffffffffff82111561324f5761324e6131b9565b5b602082029050602081019050919050565b600080fd5b600061327861327384613234565b613219565b9050808382526020820190506020840283018581111561329b5761329a613260565b5b835b818110156132c457806132b08882612f92565b84526020840193505060208101905061329d565b5050509392505050565b600082601f8301126132e3576132e26131b4565b5b81356132f3848260208601613265565b91505092915050565b600080fd5b600067ffffffffffffffff82111561331c5761331b6131b9565b5b61332582613148565b9050602081019050919050565b82818337600083830152505050565b600061335461334f84613301565b613219565b9050828152602081018484840111156133705761336f6132fc565b5b61337b848285613332565b509392505050565b600082601f830112613398576133976131b4565b5b81356133a8848260208601613341565b91505092915050565b600080600080600060a086880312156133cd576133cc612f09565b5b60006133db88828901612f5c565b95505060206133ec88828901612f5c565b945050604086013567ffffffffffffffff81111561340d5761340c612f0e565b5b613419888289016132ce565b935050606086013567ffffffffffffffff81111561343a57613439612f0e565b5b613446888289016132ce565b925050608086013567ffffffffffffffff81111561346757613466612f0e565b5b61347388828901613383565b9150509295509295909350565b600067ffffffffffffffff82111561349b5761349a6131b9565b5b602082029050602081019050919050565b60006134bf6134ba84613480565b613219565b905080838252602082019050602084028301858111156134e2576134e1613260565b5b835b8181101561350b57806134f78882612f5c565b8452602084019350506020810190506134e4565b5050509392505050565b600082601f83011261352a576135296131b4565b5b813561353a8482602086016134ac565b91505092915050565b6000806040838503121561355a57613559612f09565b5b600083013567ffffffffffffffff81111561357857613577612f0e565b5b61358485828601613515565b925050602083013567ffffffffffffffff8111156135a5576135a4612f0e565b5b6135b1858286016132ce565b9150509250929050565b600081519050919050565b600082825260208201905092915050565b6000819050602082019050919050565b6135f081612f71565b82525050565b600061360283836135e7565b60208301905092915050565b6000602082019050919050565b6000613626826135bb565b61363081856135c6565b935061363b836135d7565b8060005b8381101561366c57815161365388826135f6565b975061365e8361360e565b92505060018101905061363f565b5085935050505092915050565b60006020820190508181036000830152613693818461361b565b905092915050565b6000602082840312156136b1576136b0612f09565b5b60006136bf84828501612f5c565b91505092915050565b600081519050919050565b600082825260208201905092915050565b6000819050602082019050919050565b6136fd81612f33565b82525050565b600061370f83836136f4565b60208301905092915050565b6000602082019050919050565b6000613733826136c8565b61373d81856136d3565b9350613748836136e4565b8060005b838110156137795781516137608882613703565b975061376b8361371b565b92505060018101905061374c565b5085935050505092915050565b600060208201905081810360008301526137a08184613728565b905092915050565b6000806000606084860312156137c1576137c0612f09565b5b60006137cf86828701612f5c565b93505060206137e086828701612f92565b92505060406137f186828701612f92565b9150509250925092565b61380481612f33565b82525050565b600060208201905061381f60008301846137fb565b92915050565b60008060006060848603121561383e5761383d612f09565b5b600061384c86828701612f5c565b935050602061385d86828701612f5c565b925050604061386e86828701612f92565b9150509250925092565b61388181613096565b811461388c57600080fd5b50565b60008135905061389e81613878565b92915050565b600080604083850312156138bb576138ba612f09565b5b60006138c985828601612f5c565b92505060206138da8582860161388f565b9150509250929050565b60006138ef82612f13565b9050919050565b6138ff816138e4565b811461390a57600080fd5b50565b60008135905061391c816138f6565b92915050565b60008060006060848603121561393b5761393a612f09565b5b600061394986828701612f5c565b935050602061395a8682870161390d565b925050604061396b86828701612f92565b9150509250925092565b6000806040838503121561398c5761398b612f09565b5b600061399a85828601612f5c565b92505060206139ab85828601612f5c565b9150509250929050565b600080600080600060a086880312156139d1576139d0612f09565b5b60006139df88828901612f5c565b95505060206139f088828901612f5c565b9450506040613a0188828901612f92565b9350506060613a1288828901612f92565b925050608086013567ffffffffffffffff811115613a3357613a32612f0e565b5b613a3f88828901613383565b9150509295509295909350565b7f455243323057726170706572236465706f7369743a20494e56414c49445f524560008201527f43495049454e5400000000000000000000000000000000000000000000000000602082015250565b6000613aa8602783613104565b9150613ab382613a4c565b604082019050919050565b60006020820190508181036000830152613ad781613a9b565b9050919050565b7f455243323057726170706572236465706f7369743a204e4f4e5f4e554c4c5f4d60008201527f53475f56414c5545000000000000000000000000000000000000000000000000602082015250565b6000613b3a602883613104565b9150613b4582613ade565b604082019050919050565b60006020820190508181036000830152613b6981613b2d565b9050919050565b6000606082019050613b8560008301866137fb565b613b9260208301856137fb565b613b9f6040830184612fe7565b949350505050565b600081519050613bb681613878565b92915050565b600060208284031215613bd257613bd1612f09565b5b6000613be084828501613ba7565b91505092915050565b7f455243323057726170706572236465706f7369743a205452414e534645525f4660008201527f41494c4544000000000000000000000000000000000000000000000000000000602082015250565b6000613c45602583613104565b9150613c5082613be9565b604082019050919050565b60006020820190508181036000830152613c7481613c38565b9050919050565b7f4e487b7100000000000000000000000000000000000000000000000000000000600052601160045260246000fd5b6000613cb582612f71565b9150613cc083612f71565b9250827fffffffffffffffffffffffffffffffffffffffffffffffffffffffffffffffff03821115613cf557613cf4613c7b565b5b828201905092915050565b7f455243323057726170706572236465706f7369743a20494e434f52524543545f60008201527f4d53475f56414c55450000000000000000000000000000000000000000000000602082015250565b6000613d5c602983613104565b9150613d6782613d00565b604082019050919050565b60006020820190508181036000830152613d8b81613d4f565b9050919050565b7f4e487b7100000000000000000000000000000000000000000000000000000000600052602260045260246000fd5b60006002820490506001821680613dd957607f821691505b60208210811415613ded57613dec613d92565b5b50919050565b600081905092915050565b6000613e09826130f9565b613e138185613df3565b9350613e23818560208601613115565b80840191505092915050565b6000613e3b8285613dfe565b9150613e478284613dfe565b91508190509392505050565b7f455243313135353a2063616c6c6572206973206e6f74206f776e6572206e6f7260008201527f20617070726f7665640000000000000000000000000000000000000000000000602082015250565b6000613eaf602983613104565b9150613eba82613e53565b604082019050919050565b60006020820190508181036000830152613ede81613ea2565b9050919050565b7f455243313135353a206163636f756e747320616e6420696473206c656e67746860008201527f206d69736d617463680000000000000000000000000000000000000000000000602082015250565b6000613f41602983613104565b9150613f4c82613ee5565b604082019050919050565b60006020820190508181036000830152613f7081613f34565b9050919050565b7f4e487b7100000000000000000000000000000000000000000000000000000000600052603260045260246000fd5b7f455243313135353a2062617463682062616c616e636520717565727920666f7260008201527f20746865207a65726f2061646472657373000000000000000000000000000000602082015250565b6000614002603183613104565b915061400d82613fa6565b604082019050919050565b6000602082019050818103600083015261403181613ff5565b9050919050565b7f45524332305772617070657223676574546f6b656e49443a20554e524547495360008201527f54455245445f544f4b454e000000000000000000000000000000000000000000602082015250565b6000614094602b83613104565b915061409f82614038565b604082019050919050565b600060208201905081810360008301526140c381614087565b9050919050565b7f455243323057726170706572236765744964416464726573733a20554e52454760008201527f495354455245445f544f4b454e00000000000000000000000000000000000000602082015250565b6000614126602d83613104565b9150614131826140ca565b604082019050919050565b6000602082019050818103600083015261415581614119565b9050919050565b7f455243313135353a2073657474696e6720617070726f76616c2073746174757360008201527f20666f722073656c660000000000000000000000000000000000000000000000602082015250565b60006141b8602983613104565b91506141c38261415c565b604082019050919050565b600060208201905081810360008301526141e7816141ab565b9050919050565b7f4552433136353a20696e76616c696420696e7465726661636520696400000000600082015250565b6000614224601c83613104565b915061422f826141ee565b602082019050919050565b6000602082019050818103600083015261425381614217565b9050919050565b7f455243313135353a206d696e7420746f20746865207a65726f2061646472657360008201527f7300000000000000000000000000000000000000000000000000000000000000602082015250565b60006142b6602183613104565b91506142c18261425a565b604082019050919050565b600060208201905081810360008301526142e5816142a9565b9050919050565b60006040820190506143016000830185612fe7565b61430e6020830184612fe7565b9392505050565b7f455243313135353a2062616c616e636520717565727920666f7220746865207a60008201527f65726f2061646472657373000000000000000000000000000000000000000000602082015250565b6000614371602b83613104565b915061437c82614315565b604082019050919050565b600060208201905081810360008301526143a081614364565b9050919050565b60006143b282612f71565b91507fffffffffffffffffffffffffffffffffffffffffffffffffffffffffffffffff8214156143e5576143e4613c7b565b5b600182019050919050565b7f4e487b7100000000000000000000000000000000000000000000000000000000600052601260045260246000fd5b600061442a82612f71565b915061443583612f71565b925082614445576144446143f0565b5b828204905092915050565b600061445b82612f71565b915061446683612f71565b92508282101561447957614478613c7b565b5b828203905092915050565b600061448f82612f71565b915061449a83612f71565b9250826144aa576144a96143f0565b5b828206905092915050565b7f455243313135353a206275726e2066726f6d20746865207a65726f206164647260008201527f6573730000000000000000000000000000000000000000000000000000000000602082015250565b6000614511602383613104565b915061451c826144b5565b604082019050919050565b6000602082019050818103600083015261454081614504565b9050919050565b7f455243313135353a206275726e20616d6f756e7420657863656564732062616c60008201527f616e636573000000000000000000000000000000000000000000000000000000602082015250565b60006145a3602583613104565b91506145ae82614547565b604082019050919050565b600060208201905081810360008301526145d281614596565b9050919050565b6000819050919050565b60006145fe6145f96145f484612f13565b6145d9565b612f13565b9050919050565b6000614610826145e3565b9050919050565b600061462282614605565b9050919050565b61463281614617565b82525050565b600060408201905061464d6000830185614629565b61465a6020830184612fe7565b9392505050565b7f4552433230577261707065722377697468647261773a205452414e534645525f60008201527f4641494c45440000000000000000000000000000000000000000000000000000602082015250565b60006146bd602683613104565b91506146c882614661565b604082019050919050565b600060208201905081810360008301526146ec816146b0565b9050919050565b7f4552433230577261707065722377697468647261773a20494e56414c49445f5260008201527f4543495049454e54000000000000000000000000000000000000000000000000602082015250565b600061474f602883613104565b915061475a826146f3565b604082019050919050565b6000602082019050818103600083015261477e81614742565b9050919050565b600081905092915050565b50565b60006147a0600083614785565b91506147ab82614790565b600082019050919050565b60006147c182614793565b9150819050919050565b7f455243313135353a207472616e7366657220746f20746865207a65726f20616460008201527f6472657373000000000000000000000000000000000000000000000000000000602082015250565b6000614827602583613104565b9150614832826147cb565b604082019050919050565b600060208201905081810360008301526148568161481a565b9050919050565b7f455243313135353a2069647320616e6420616d6f756e7473206c656e6774682060008201527f6d69736d61746368000000000000000000000000000000000000000000000000602082015250565b60006148b9602883613104565b91506148c48261485d565b604082019050919050565b600060208201905081810360008301526148e8816148ac565b9050919050565b7f455243313135353a20696e73756666696369656e742062616c616e636573206660008201527f6f72207472616e73666572000000000000000000000000000000000000000000602082015250565b600061494b602b83613104565b9150614956826148ef565b604082019050919050565b6000602082019050818103600083015261497a8161493e565b9050919050565b6000604082019050818103600083015261499b818561361b565b905081810360208301526149af818461361b565b90509392505050565b600081519050919050565b600082825260208201905092915050565b60006149df826149b8565b6149e981856149c3565b93506149f9818560208601613115565b614a0281613148565b840191505092915050565b600060a082019050614a2260008301886137fb565b614a2f60208301876137fb565b8181036040830152614a41818661361b565b90508181036060830152614a55818561361b565b90508181036080830152614a6981846149d4565b90509695505050505050565b600081519050614a848161303d565b92915050565b600060208284031215614aa057614a9f612f09565b5b6000614aae84828501614a75565b91505092915050565b60008160e01c9050919050565b600060033d1115614ae35760046000803e614ae0600051614ab7565b90505b90565b600060443d1015614af657614b79565b614afe612eff565b60043d036004823e80513d602482011167ffffffffffffffff82111715614b26575050614b79565b808201805167ffffffffffffffff811115614b445750505050614b79565b80602083010160043d038501811115614b61575050505050614b79565b614b70826020018501866131e8565b82955050505050505b90565b7f455243313135353a207472616e7366657220746f206e6f6e204552433131353560008201527f526563656976657220696d706c656d656e746572000000000000000000000000602082015250565b6000614bd8603483613104565b9150614be382614b7c565b604082019050919050565b60006020820190508181036000830152614c0781614bcb565b9050919050565b7f455243313135353a204552433131353552656365697665722072656a6563746560008201527f6420746f6b656e73000000000000000000000000000000000000000000000000602082015250565b6000614c6a602883613104565b9150614c7582614c0e565b604082019050919050565b60006020820190508181036000830152614c9981614c5d565b9050919050565b600060a082019050614cb560008301886137fb565b614cc260208301876137fb565b614ccf6040830186612fe7565b614cdc6060830185612fe7565b8181036080830152614cee81846149d4565b90509695505050505050565b7f456e756d657261626c655365743a20696e646578206f7574206f6620626f756e60008201527f6473000000000000000000000000000000000000000000000000000000000000602082015250565b6000614d56602283613104565b9150614d6182614cfa565b604082019050919050565b60006020820190508181036000830152614d8581614d49565b9050919050565b7f4e487b7100000000000000000000000000000000000000000000000000000000600052603160045260246000fdfea2646970667358221220adf30993bf3992c5d5ea4b0f1f028a0e6bc4a0226f135cdf1f9956fcfb52a76964736f6c634300080c0033",
  "linkReferences": {},
  "deployedLinkReferences": {}
}