{
  "_format": "hh-sol-artifact-1",
  "contractName": "MyToken",
  "sourceName": "contracts/facets/MyToken.sol",
  "abi": [
    {
      "anonymous": false,
      "inputs": [
        {
          "indexed": true,
          "internalType": "address",
          "name": "owner",
          "type": "address"
        },
        {
          "indexed": true,
          "internalType": "address",
          "name": "spender",
          "type": "address"
        },
        {
          "indexed": false,
          "internalType": "uint256",
          "name": "value",
          "type": "uint256"
        }
      ],
      "name": "Approval",
      "type": "event"
    },
    {
      "anonymous": false,
      "inputs": [
        {
          "indexed": true,
          "internalType": "address",
          "name": "from",
          "type": "address"
        },
        {
          "indexed": true,
          "internalType": "address",
          "name": "to",
          "type": "address"
        },
        {
          "indexed": false,
          "internalType": "uint256",
          "name": "value",
          "type": "uint256"
        }
      ],
      "name": "Transfer",
      "type": "event"
    },
    {
      "inputs": [
        {
          "internalType": "address",
          "name": "dao",
          "type": "address"
        },
        {
          "internalType": "uint256",
          "name": "amount",
          "type": "uint256"
        }
      ],
      "name": "__burn",
      "outputs": [],
      "stateMutability": "nonpayable",
      "type": "function"
    },
    {
      "inputs": [
        {
          "internalType": "address",
          "name": "holder",
          "type": "address"
        },
        {
          "internalType": "address",
          "name": "spender",
          "type": "address"
        }
      ],
      "name": "allowance",
      "outputs": [
        {
          "internalType": "uint256",
          "name": "",
          "type": "uint256"
        }
      ],
      "stateMutability": "view",
      "type": "function"
    },
    {
      "inputs": [
        {
          "internalType": "address",
          "name": "spender",
          "type": "address"
        },
        {
          "internalType": "uint256",
          "name": "amount",
          "type": "uint256"
        }
      ],
      "name": "approve",
      "outputs": [
        {
          "internalType": "bool",
          "name": "",
          "type": "bool"
        }
      ],
      "stateMutability": "nonpayable",
      "type": "function"
    },
    {
      "inputs": [
        {
          "internalType": "address",
          "name": "account",
          "type": "address"
        }
      ],
      "name": "balanceOf",
      "outputs": [
        {
          "internalType": "uint256",
          "name": "",
          "type": "uint256"
        }
      ],
      "stateMutability": "view",
      "type": "function"
    },
    {
      "inputs": [],
      "name": "decimals",
      "outputs": [
        {
          "internalType": "uint8",
          "name": "",
          "type": "uint8"
        }
      ],
      "stateMutability": "view",
      "type": "function"
    },
    {
      "inputs": [
        {
          "internalType": "address",
          "name": "spender",
          "type": "address"
        },
        {
          "internalType": "uint256",
          "name": "amount",
          "type": "uint256"
        }
      ],
      "name": "decreaseAllowance",
      "outputs": [
        {
          "internalType": "bool",
          "name": "",
          "type": "bool"
        }
      ],
      "stateMutability": "nonpayable",
      "type": "function"
    },
    {
      "inputs": [
        {
          "internalType": "uint256",
          "name": "id",
          "type": "uint256"
        }
      ],
      "name": "getRoleSupply",
      "outputs": [
        {
          "internalType": "uint256",
          "name": "",
          "type": "uint256"
        }
      ],
      "stateMutability": "view",
      "type": "function"
    },
    {
      "inputs": [
        {
          "internalType": "address",
          "name": "spender",
          "type": "address"
        },
        {
          "internalType": "uint256",
          "name": "amount",
          "type": "uint256"
        }
      ],
      "name": "increaseAllowance",
      "outputs": [
        {
          "internalType": "bool",
          "name": "",
          "type": "bool"
        }
      ],
      "stateMutability": "nonpayable",
      "type": "function"
    },
    {
      "inputs": [
        {
          "internalType": "string",
          "name": "name",
          "type": "string"
        },
        {
          "internalType": "string",
          "name": "symbol",
          "type": "string"
        },
        {
          "internalType": "uint8",
          "name": "decimals",
          "type": "uint8"
        },
        {
          "internalType": "uint256",
          "name": "supply",
          "type": "uint256"
        }
      ],
      "name": "initERC20",
      "outputs": [],
      "stateMutability": "nonpayable",
      "type": "function"
    },
    {
      "inputs": [],
      "name": "name",
      "outputs": [
        {
          "internalType": "string",
          "name": "",
          "type": "string"
        }
      ],
      "stateMutability": "view",
      "type": "function"
    },
    {
      "inputs": [],
      "name": "symbol",
      "outputs": [
        {
          "internalType": "string",
          "name": "",
          "type": "string"
        }
      ],
      "stateMutability": "view",
      "type": "function"
    },
    {
      "inputs": [],
      "name": "totalSupply",
      "outputs": [
        {
          "internalType": "uint256",
          "name": "",
          "type": "uint256"
        }
      ],
      "stateMutability": "view",
      "type": "function"
    },
    {
      "inputs": [
        {
          "internalType": "address",
          "name": "recipient",
          "type": "address"
        },
        {
          "internalType": "uint256",
          "name": "amount",
          "type": "uint256"
        }
      ],
      "name": "transfer",
      "outputs": [
        {
          "internalType": "bool",
          "name": "",
          "type": "bool"
        }
      ],
      "stateMutability": "nonpayable",
      "type": "function"
    },
    {
      "inputs": [
        {
          "internalType": "address",
          "name": "holder",
          "type": "address"
        },
        {
          "internalType": "address",
          "name": "recipient",
          "type": "address"
        },
        {
          "internalType": "uint256",
          "name": "amount",
          "type": "uint256"
        }
      ],
      "name": "transferFrom",
      "outputs": [
        {
          "internalType": "bool",
          "name": "",
          "type": "bool"
        }
      ],
      "stateMutability": "nonpayable",
      "type": "function"
    },
    {
      "inputs": [
        {
          "internalType": "uint256",
          "name": "roleID",
          "type": "uint256"
        },
        {
          "internalType": "address",
          "name": "account",
          "type": "address"
        }
      ],
      "name": "verifyRole",
      "outputs": [
        {
          "internalType": "bool",
          "name": "hasRole",
          "type": "bool"
        }
      ],
      "stateMutability": "view",
      "type": "function"
    }
  ],
  "bytecode": "0x608060405234801561001057600080fd5b506121d3806100206000396000f3fe608060405234801561001057600080fd5b50600436106100f55760003560e01c806370a0823111610097578063a9059cbb11610066578063a9059cbb146102ae578063aa82e017146102de578063dd62ed3e146102fa578063e76312961461032a576100f5565b806370a0823114610214578063824135221461024457806395d89b4114610260578063a457c2d71461027e576100f5565b806318cb99da116100d357806318cb99da1461016657806323b872dd14610196578063313ce567146101c657806339509351146101e4576100f5565b806306fdde03146100fa578063095ea7b31461011857806318160ddd14610148575b600080fd5b61010261035a565b60405161010f919061158f565b60405180910390f35b610132600480360381019061012d919061164f565b6103f5565b60405161013f91906116aa565b60405180910390f35b61015061040c565b60405161015d91906116d4565b60405180910390f35b610180600480360381019061017b91906116ef565b61041b565b60405161018d91906116d4565b60405180910390f35b6101b060048036038101906101ab919061171c565b610446565b6040516101bd91906116aa565b60405180910390f35b6101ce610538565b6040516101db919061178b565b60405180910390f35b6101fe60048036038101906101f9919061164f565b610558565b60405161020b91906116aa565b60405180910390f35b61022e600480360381019061022991906117a6565b610687565b60405161023b91906116d4565b60405180910390f35b61025e60048036038101906102599190611864565b610699565b005b610268610779565b604051610275919061158f565b60405180910390f35b6102986004803603810190610293919061164f565b610814565b6040516102a591906116aa565b60405180910390f35b6102c860048036038101906102c3919061164f565b610941565b6040516102d591906116aa565b60405180910390f35b6102f860048036038101906102f3919061164f565b610958565b005b610314600480360381019061030f919061190b565b610a4a565b60405161032191906116d4565b60405180910390f35b610344600480360381019061033f919061194b565b610ada565b60405161035191906116aa565b60405180910390f35b6060610364610b0e565b6000018054610372906119ba565b80601f016020809104026020016040519081016040528092919081815260200182805461039e906119ba565b80156103eb5780601f106103c0576101008083540402835291602001916103eb565b820191906000526020600020905b8154815290600101906020018083116103ce57829003601f168201915b5050505050905090565b6000610402338484610b3b565b6001905092915050565b6000610416610d0f565b905090565b600080610426610d22565b905080600001600084815260200190815260200160002054915050919050565b600080610451610d4f565b60010160008673ffffffffffffffffffffffffffffffffffffffff1673ffffffffffffffffffffffffffffffffffffffff16815260200190815260200160002060003373ffffffffffffffffffffffffffffffffffffffff1673ffffffffffffffffffffffffffffffffffffffff16815260200190815260200160002054905082811015610514576040517f08c379a000000000000000000000000000000000000000000000000000000000815260040161050b90611a5e565b60405180910390fd5b6105218533858403610b3b565b61052c858585610d7c565b60019150509392505050565b6000610542610b0e565b60020160009054906101000a900460ff16905090565b600080610563610d4f565b60010160003373ffffffffffffffffffffffffffffffffffffffff1673ffffffffffffffffffffffffffffffffffffffff168152602001908152602001600020905060008160008673ffffffffffffffffffffffffffffffffffffffff1673ffffffffffffffffffffffffffffffffffffffff16815260200190815260200160002054905080848201101561062d576040517f08c379a000000000000000000000000000000000000000000000000000000000815260040161062490611af0565b60405180910390fd5b61067b33868684018560008a73ffffffffffffffffffffffffffffffffffffffff1673ffffffffffffffffffffffffffffffffffffffff168152602001908152602001600020819055610b3b565b60019250505092915050565b600061069282611008565b9050919050565b60006106a3610b0e565b90506106fc87878080601f016020809104026020016040519081016040528093929190818152602001838380828437600081840152601f19601f820116905080830192505050505050508261105a90919063ffffffff16565b61075385858080601f016020809104026020016040519081016040528093929190818152602001838380828437600081840152601f19601f820116905080830192505050505050508261107790919063ffffffff16565b610766838261109490919063ffffffff16565b61077033836110b5565b50505050505050565b6060610783610b0e565b6001018054610791906119ba565b80601f01602080910402602001604051908101604052809291908181526020018280546107bd906119ba565b801561080a5780601f106107df5761010080835404028352916020019161080a565b820191906000526020600020905b8154815290600101906020018083116107ed57829003601f168201915b5050505050905090565b60008061081f610d4f565b60010160003373ffffffffffffffffffffffffffffffffffffffff1673ffffffffffffffffffffffffffffffffffffffff168152602001908152602001600020905060008160008673ffffffffffffffffffffffffffffffffffffffff1673ffffffffffffffffffffffffffffffffffffffff168152602001908152602001600020549050808411156108e7576040517f08c379a00000000000000000000000000000000000000000000000000000000081526004016108de90611b82565b60405180910390fd5b61093533868684038560008a73ffffffffffffffffffffffffffffffffffffffff1673ffffffffffffffffffffffffffffffffffffffff168152602001908152602001600020819055610b3b565b60019250505092915050565b600061094e338484610d7c565b6001905092915050565b33600073ffffffffffffffffffffffffffffffffffffffff168173ffffffffffffffffffffffffffffffffffffffff1614156109c9576040517f08c379a00000000000000000000000000000000000000000000000000000000081526004016109c090611bee565b60405180910390fd5b60006109d3610d22565b9050600115156109f8826001016000609981526020019081526020016000208461121b565b151514610a3a576040517f08c379a0000000000000000000000000000000000000000000000000000000008152600401610a3190611c5a565b60405180910390fd5b610a44848461124b565b50505050565b6000610a54610d4f565b60010160008473ffffffffffffffffffffffffffffffffffffffff1673ffffffffffffffffffffffffffffffffffffffff16815260200190815260200160002060008373ffffffffffffffffffffffffffffffffffffffff1673ffffffffffffffffffffffffffffffffffffffff16815260200190815260200160002054905092915050565b600080610ae5610d22565b9050610b058160010160008681526020019081526020016000208461121b565b91505092915050565b6000807f2967a798b92539a1b9eefe4d8eb931f96b68d27665e276f1bee2d5db7f74304790508091505090565b600073ffffffffffffffffffffffffffffffffffffffff168373ffffffffffffffffffffffffffffffffffffffff161415610bab576040517f08c379a0000000000000000000000000000000000000000000000000000000008152600401610ba290611cec565b60405180910390fd5b600073ffffffffffffffffffffffffffffffffffffffff168273ffffffffffffffffffffffffffffffffffffffff161415610c1b576040517f08c379a0000000000000000000000000000000000000000000000000000000008152600401610c1290611d7e565b60405180910390fd5b80610c24610d4f565b60010160008573ffffffffffffffffffffffffffffffffffffffff1673ffffffffffffffffffffffffffffffffffffffff16815260200190815260200160002060008473ffffffffffffffffffffffffffffffffffffffff1673ffffffffffffffffffffffffffffffffffffffff168152602001908152602001600020819055508173ffffffffffffffffffffffffffffffffffffffff168373ffffffffffffffffffffffffffffffffffffffff167f8c5be1e5ebec7d5bd14f71427d1e84f3dd0314c0f7b2291e5b200ac8c7c3b92583604051610d0291906116d4565b60405180910390a3505050565b6000610d19610d4f565b60020154905090565b6000807fb31c2c74f86ca3ce94d901f5f5bbe66f7161eec2f7b5aa0b75a86371436424ea90508091505090565b6000807fc991b2e918acaba8e5721668ed0b1982684e5a8692a621bcd2d7ef326bb015b490508091505090565b600073ffffffffffffffffffffffffffffffffffffffff168373ffffffffffffffffffffffffffffffffffffffff161415610dec576040517f08c379a0000000000000000000000000000000000000000000000000000000008152600401610de390611e10565b60405180910390fd5b600073ffffffffffffffffffffffffffffffffffffffff168273ffffffffffffffffffffffffffffffffffffffff161415610e5c576040517f08c379a0000000000000000000000000000000000000000000000000000000008152600401610e5390611ea2565b60405180910390fd5b610e6783838361142b565b6000610e71610d4f565b905060008160000160008673ffffffffffffffffffffffffffffffffffffffff1673ffffffffffffffffffffffffffffffffffffffff16815260200190815260200160002054905082811015610efc576040517f08c379a0000000000000000000000000000000000000000000000000000000008152600401610ef390611f34565b60405180910390fd5b8281038260000160008773ffffffffffffffffffffffffffffffffffffffff1673ffffffffffffffffffffffffffffffffffffffff16815260200190815260200160002081905550828260000160008673ffffffffffffffffffffffffffffffffffffffff1673ffffffffffffffffffffffffffffffffffffffff1681526020019081526020016000206000828254610f959190611f83565b925050819055508373ffffffffffffffffffffffffffffffffffffffff168573ffffffffffffffffffffffffffffffffffffffff167fddf252ad1be2c89b69c2b068fc378daa952ba7f163c4a11628f55a4df523b3ef85604051610ff991906116d4565b60405180910390a35050505050565b6000611012610d4f565b60000160008373ffffffffffffffffffffffffffffffffffffffff1673ffffffffffffffffffffffffffffffffffffffff168152602001908152602001600020549050919050565b80826000019080519060200190611072929190611453565b505050565b8082600101908051906020019061108f929190611453565b505050565b808260020160006101000a81548160ff021916908360ff1602179055505050565b600073ffffffffffffffffffffffffffffffffffffffff168273ffffffffffffffffffffffffffffffffffffffff161415611125576040517f08c379a000000000000000000000000000000000000000000000000000000000815260040161111c90612025565b60405180910390fd5b6111316000838361142b565b600061113b610d4f565b9050818160020160008282546111519190611f83565b92505081905550818160000160008573ffffffffffffffffffffffffffffffffffffffff1673ffffffffffffffffffffffffffffffffffffffff16815260200190815260200160002060008282546111a99190611f83565b925050819055508273ffffffffffffffffffffffffffffffffffffffff16600073ffffffffffffffffffffffffffffffffffffffff167fddf252ad1be2c89b69c2b068fc378daa952ba7f163c4a11628f55a4df523b3ef8460405161120e91906116d4565b60405180910390a3505050565b6000611243836000018373ffffffffffffffffffffffffffffffffffffffff1660001b611430565b905092915050565b600073ffffffffffffffffffffffffffffffffffffffff168273ffffffffffffffffffffffffffffffffffffffff1614156112bb576040517f08c379a00000000000000000000000000000000000000000000000000000000081526004016112b2906120b7565b60405180910390fd5b6112c78260008361142b565b60006112d1610d4f565b905060008160000160008573ffffffffffffffffffffffffffffffffffffffff1673ffffffffffffffffffffffffffffffffffffffff1681526020019081526020016000205490508281101561135c576040517f08c379a000000000000000000000000000000000000000000000000000000000815260040161135390612149565b60405180910390fd5b8281038260000160008673ffffffffffffffffffffffffffffffffffffffff1673ffffffffffffffffffffffffffffffffffffffff16815260200190815260200160002081905550828260020160008282546113b89190612169565b92505081905550600073ffffffffffffffffffffffffffffffffffffffff168473ffffffffffffffffffffffffffffffffffffffff167fddf252ad1be2c89b69c2b068fc378daa952ba7f163c4a11628f55a4df523b3ef8560405161141d91906116d4565b60405180910390a350505050565b505050565b600080836001016000848152602001908152602001600020541415905092915050565b82805461145f906119ba565b90600052602060002090601f01602090048101928261148157600085556114c8565b82601f1061149a57805160ff19168380011785556114c8565b828001600101855582156114c8579182015b828111156114c75782518255916020019190600101906114ac565b5b5090506114d591906114d9565b5090565b5b808211156114f25760008160009055506001016114da565b5090565b600081519050919050565b600082825260208201905092915050565b60005b83811015611530578082015181840152602081019050611515565b8381111561153f576000848401525b50505050565b6000601f19601f8301169050919050565b6000611561826114f6565b61156b8185611501565b935061157b818560208601611512565b61158481611545565b840191505092915050565b600060208201905081810360008301526115a98184611556565b905092915050565b600080fd5b600080fd5b600073ffffffffffffffffffffffffffffffffffffffff82169050919050565b60006115e6826115bb565b9050919050565b6115f6816115db565b811461160157600080fd5b50565b600081359050611613816115ed565b92915050565b6000819050919050565b61162c81611619565b811461163757600080fd5b50565b60008135905061164981611623565b92915050565b60008060408385031215611666576116656115b1565b5b600061167485828601611604565b92505060206116858582860161163a565b9150509250929050565b60008115159050919050565b6116a48161168f565b82525050565b60006020820190506116bf600083018461169b565b92915050565b6116ce81611619565b82525050565b60006020820190506116e960008301846116c5565b92915050565b600060208284031215611705576117046115b1565b5b60006117138482850161163a565b91505092915050565b600080600060608486031215611735576117346115b1565b5b600061174386828701611604565b935050602061175486828701611604565b92505060406117658682870161163a565b9150509250925092565b600060ff82169050919050565b6117858161176f565b82525050565b60006020820190506117a0600083018461177c565b92915050565b6000602082840312156117bc576117bb6115b1565b5b60006117ca84828501611604565b91505092915050565b600080fd5b600080fd5b600080fd5b60008083601f8401126117f8576117f76117d3565b5b8235905067ffffffffffffffff811115611815576118146117d8565b5b602083019150836001820283011115611831576118306117dd565b5b9250929050565b6118418161176f565b811461184c57600080fd5b50565b60008135905061185e81611838565b92915050565b60008060008060008060808789031215611881576118806115b1565b5b600087013567ffffffffffffffff81111561189f5761189e6115b6565b5b6118ab89828a016117e2565b9650965050602087013567ffffffffffffffff8111156118ce576118cd6115b6565b5b6118da89828a016117e2565b945094505060406118ed89828a0161184f565b92505060606118fe89828a0161163a565b9150509295509295509295565b60008060408385031215611922576119216115b1565b5b600061193085828601611604565b925050602061194185828601611604565b9150509250929050565b60008060408385031215611962576119616115b1565b5b60006119708582860161163a565b925050602061198185828601611604565b9150509250929050565b7f4e487b7100000000000000000000000000000000000000000000000000000000600052602260045260246000fd5b600060028204905060018216806119d257607f821691505b602082108114156119e6576119e561198b565b5b50919050565b7f45524332303a207472616e7366657220616d6f756e742065786365656473206160008201527f6c6c6f77616e6365000000000000000000000000000000000000000000000000602082015250565b6000611a48602883611501565b9150611a53826119ec565b604082019050919050565b60006020820190508181036000830152611a7781611a3b565b9050919050565b7f4552433230457874656e6465643a2065786365737369766520616c6c6f77616e60008201527f6365000000000000000000000000000000000000000000000000000000000000602082015250565b6000611ada602283611501565b9150611ae582611a7e565b604082019050919050565b60006020820190508181036000830152611b0981611acd565b9050919050565b7f4552433230457874656e6465643a20696e73756666696369656e7420616c6c6f60008201527f77616e6365000000000000000000000000000000000000000000000000000000602082015250565b6000611b6c602583611501565b9150611b7782611b10565b604082019050919050565b60006020820190508181036000830152611b9b81611b5f565b9050919050565b7f4e6f742076616c69642061646472657373000000000000000000000000000000600082015250565b6000611bd8601183611501565b9150611be382611ba2565b602082019050919050565b60006020820190508181036000830152611c0781611bcb565b9050919050565b7f4e6f7420636f6d7074726f6c6c65720000000000000000000000000000000000600082015250565b6000611c44600f83611501565b9150611c4f82611c0e565b602082019050919050565b60006020820190508181036000830152611c7381611c37565b9050919050565b7f45524332303a20617070726f76652066726f6d20746865207a65726f2061646460008201527f7265737300000000000000000000000000000000000000000000000000000000602082015250565b6000611cd6602483611501565b9150611ce182611c7a565b604082019050919050565b60006020820190508181036000830152611d0581611cc9565b9050919050565b7f45524332303a20617070726f766520746f20746865207a65726f20616464726560008201527f7373000000000000000000000000000000000000000000000000000000000000602082015250565b6000611d68602283611501565b9150611d7382611d0c565b604082019050919050565b60006020820190508181036000830152611d9781611d5b565b9050919050565b7f45524332303a207472616e736665722066726f6d20746865207a65726f20616460008201527f6472657373000000000000000000000000000000000000000000000000000000602082015250565b6000611dfa602583611501565b9150611e0582611d9e565b604082019050919050565b60006020820190508181036000830152611e2981611ded565b9050919050565b7f45524332303a207472616e7366657220746f20746865207a65726f206164647260008201527f6573730000000000000000000000000000000000000000000000000000000000602082015250565b6000611e8c602383611501565b9150611e9782611e30565b604082019050919050565b60006020820190508181036000830152611ebb81611e7f565b9050919050565b7f45524332303a207472616e7366657220616d6f756e742065786365656473206260008201527f616c616e63650000000000000000000000000000000000000000000000000000602082015250565b6000611f1e602683611501565b9150611f2982611ec2565b604082019050919050565b60006020820190508181036000830152611f4d81611f11565b9050919050565b7f4e487b7100000000000000000000000000000000000000000000000000000000600052601160045260246000fd5b6000611f8e82611619565b9150611f9983611619565b9250827fffffffffffffffffffffffffffffffffffffffffffffffffffffffffffffffff03821115611fce57611fcd611f54565b5b828201905092915050565b7f45524332303a206d696e7420746f20746865207a65726f206164647265737300600082015250565b600061200f601f83611501565b915061201a82611fd9565b602082019050919050565b6000602082019050818103600083015261203e81612002565b9050919050565b7f45524332303a206275726e2066726f6d20746865207a65726f2061646472657360008201527f7300000000000000000000000000000000000000000000000000000000000000602082015250565b60006120a1602183611501565b91506120ac82612045565b604082019050919050565b600060208201905081810360008301526120d081612094565b9050919050565b7f45524332303a206275726e20616d6f756e7420657863656564732062616c616e60008201527f6365000000000000000000000000000000000000000000000000000000000000602082015250565b6000612133602283611501565b915061213e826120d7565b604082019050919050565b6000602082019050818103600083015261216281612126565b9050919050565b600061217482611619565b915061217f83611619565b92508282101561219257612191611f54565b5b82820390509291505056fea26469706673582212208ed2e6906358d6852f2f4bfde37f92d7906f2243bfcdec80653c3362b0b41de264736f6c634300080c0033",
  "linkReferences": {},
  "deployedLinkReferences": {}
}