{
  "_format": "hh-sol-artifact-1",
  "contractName": "MyDiamond",
  "sourceName": "contracts/MyDiamond.sol",
  "abi": [
    {
      "anonymous": false,
      "inputs": [
        {
          "components": [
            {
              "internalType": "address",
              "name": "target",
              "type": "address"
            },
            {
              "internalType": "enum IDiamondCuttable.FacetCutAction",
              "name": "action",
              "type": "uint8"
            },
            {
              "internalType": "bytes4[]",
              "name": "selectors",
              "type": "bytes4[]"
            }
          ],
          "indexed": false,
          "internalType": "struct IDiamondCuttable.FacetCut[]",
          "name": "facetCuts",
          "type": "tuple[]"
        },
        {
          "indexed": false,
          "internalType": "address",
          "name": "target",
          "type": "address"
        },
        {
          "indexed": false,
          "internalType": "bytes",
          "name": "data",
          "type": "bytes"
        }
      ],
      "name": "DiamondCut",
      "type": "event"
    },
    {
      "anonymous": false,
      "inputs": [
        {
          "indexed": true,
          "internalType": "address",
          "name": "previousOwner",
          "type": "address"
        },
        {
          "indexed": true,
          "internalType": "address",
          "name": "newOwner",
          "type": "address"
        }
      ],
      "name": "OwnershipTransferred",
      "type": "event"
    },
    {
      "stateMutability": "payable",
      "type": "fallback"
    },
    {
      "inputs": [],
      "name": "acceptOwnership",
      "outputs": [],
      "stateMutability": "nonpayable",
      "type": "function"
    },
    {
      "inputs": [
        {
          "components": [
            {
              "internalType": "address",
              "name": "target",
              "type": "address"
            },
            {
              "internalType": "enum IDiamondCuttable.FacetCutAction",
              "name": "action",
              "type": "uint8"
            },
            {
              "internalType": "bytes4[]",
              "name": "selectors",
              "type": "bytes4[]"
            }
          ],
          "internalType": "struct IDiamondCuttable.FacetCut[]",
          "name": "facetCuts",
          "type": "tuple[]"
        },
        {
          "internalType": "address",
          "name": "target",
          "type": "address"
        },
        {
          "internalType": "bytes",
          "name": "data",
          "type": "bytes"
        }
      ],
      "name": "diamondCut",
      "outputs": [],
      "stateMutability": "nonpayable",
      "type": "function"
    },
    {
      "inputs": [
        {
          "internalType": "bytes4",
          "name": "selector",
          "type": "bytes4"
        }
      ],
      "name": "facetAddress",
      "outputs": [
        {
          "internalType": "address",
          "name": "facet",
          "type": "address"
        }
      ],
      "stateMutability": "view",
      "type": "function"
    },
    {
      "inputs": [],
      "name": "facetAddresses",
      "outputs": [
        {
          "internalType": "address[]",
          "name": "addresses",
          "type": "address[]"
        }
      ],
      "stateMutability": "view",
      "type": "function"
    },
    {
      "inputs": [
        {
          "internalType": "address",
          "name": "facet",
          "type": "address"
        }
      ],
      "name": "facetFunctionSelectors",
      "outputs": [
        {
          "internalType": "bytes4[]",
          "name": "selectors",
          "type": "bytes4[]"
        }
      ],
      "stateMutability": "view",
      "type": "function"
    },
    {
      "inputs": [],
      "name": "facets",
      "outputs": [
        {
          "components": [
            {
              "internalType": "address",
              "name": "target",
              "type": "address"
            },
            {
              "internalType": "bytes4[]",
              "name": "selectors",
              "type": "bytes4[]"
            }
          ],
          "internalType": "struct IDiamondLoupe.Facet[]",
          "name": "diamondFacets",
          "type": "tuple[]"
        }
      ],
      "stateMutability": "view",
      "type": "function"
    },
    {
      "inputs": [],
      "name": "getFallbackAddress",
      "outputs": [
        {
          "internalType": "address",
          "name": "",
          "type": "address"
        }
      ],
      "stateMutability": "view",
      "type": "function"
    },
    {
      "inputs": [],
      "name": "nomineeOwner",
      "outputs": [
        {
          "internalType": "address",
          "name": "",
          "type": "address"
        }
      ],
      "stateMutability": "view",
      "type": "function"
    },
    {
      "inputs": [],
      "name": "owner",
      "outputs": [
        {
          "internalType": "address",
          "name": "",
          "type": "address"
        }
      ],
      "stateMutability": "view",
      "type": "function"
    },
    {
      "inputs": [
        {
          "internalType": "address",
          "name": "fallbackAddress",
          "type": "address"
        }
      ],
      "name": "setFallbackAddress",
      "outputs": [],
      "stateMutability": "nonpayable",
      "type": "function"
    },
    {
      "inputs": [
        {
          "internalType": "bytes4",
          "name": "interfaceId",
          "type": "bytes4"
        }
      ],
      "name": "supportsInterface",
      "outputs": [
        {
          "internalType": "bool",
          "name": "",
          "type": "bool"
        }
      ],
      "stateMutability": "view",
      "type": "function"
    },
    {
      "inputs": [
        {
          "internalType": "address",
          "name": "account",
          "type": "address"
        }
      ],
      "name": "transferOwnership",
      "outputs": [],
      "stateMutability": "nonpayable",
      "type": "function"
    },
    {
      "stateMutability": "payable",
      "type": "receive"
    }
  ],
  "bytecode": "0x60806040523480156200001157600080fd5b50600062000029620007b760201b620014091760201c565b90506000600c67ffffffffffffffff8111156200004b576200004a62001923565b5b6040519080825280602002602001820160405280156200007a5781602001602082028036833780820191505090505b509050631f931c1c60e01b816000815181106200009c576200009b62001952565b5b60200260200101907bffffffffffffffffffffffffffffffffffffffffffffffffffffffff191690817bffffffffffffffffffffffffffffffffffffffffffffffffffffffff191681525050620001257f1f931c1c00000000000000000000000000000000000000000000000000000000600184620007e460201b62001436179092919060201c565b637a0ed62760e01b8160018151811062000144576200014362001952565b5b60200260200101907bffffffffffffffffffffffffffffffffffffffffffffffffffffffff191690817bffffffffffffffffffffffffffffffffffffffffffffffffffffffff19168152505063adfca15e60e01b81600281518110620001af57620001ae62001952565b5b60200260200101907bffffffffffffffffffffffffffffffffffffffffffffffffffffffff191690817bffffffffffffffffffffffffffffffffffffffffffffffffffffffff1916815250506352ef6b2c60e01b816003815181106200021a576200021962001952565b5b60200260200101907bffffffffffffffffffffffffffffffffffffffffffffffffffffffff191690817bffffffffffffffffffffffffffffffffffffffffffffffffffffffff19168152505063cdffacc660e01b8160048151811062000285576200028462001952565b5b60200260200101907bffffffffffffffffffffffffffffffffffffffffffffffffffffffff191690817bffffffffffffffffffffffffffffffffffffffffffffffffffffffff1916815250506200030e7f48e2b09300000000000000000000000000000000000000000000000000000000600184620007e460201b62001436179092919060201c565b6301ffc9a760e01b816005815181106200032d576200032c62001952565b5b60200260200101907bffffffffffffffffffffffffffffffffffffffffffffffffffffffff191690817bffffffffffffffffffffffffffffffffffffffffffffffffffffffff191681525050620003b67f01ffc9a700000000000000000000000000000000000000000000000000000000600184620007e460201b62001436179092919060201c565b638da5cb5b60e01b81600681518110620003d557620003d462001952565b5b60200260200101907bffffffffffffffffffffffffffffffffffffffffffffffffffffffff191690817bffffffffffffffffffffffffffffffffffffffffffffffffffffffff191681525050638ab5150a60e01b8160078151811062000440576200043f62001952565b5b60200260200101907bffffffffffffffffffffffffffffffffffffffffffffffffffffffff191690817bffffffffffffffffffffffffffffffffffffffffffffffffffffffff19168152505063f2fde38b60e01b81600881518110620004ab57620004aa62001952565b5b60200260200101907bffffffffffffffffffffffffffffffffffffffffffffffffffffffff191690817bffffffffffffffffffffffffffffffffffffffffffffffffffffffff1916815250506379ba509760e01b8160098151811062000516576200051562001952565b5b60200260200101907bffffffffffffffffffffffffffffffffffffffffffffffffffffffff191690817bffffffffffffffffffffffffffffffffffffffffffffffffffffffff1916815250506200059f7f7f5828d000000000000000000000000000000000000000000000000000000000600184620007e460201b62001436179092919060201c565b632c40805960e01b81600a81518110620005be57620005bd62001952565b5b60200260200101907bffffffffffffffffffffffffffffffffffffffffffffffffffffffff191690817bffffffffffffffffffffffffffffffffffffffffffffffffffffffff191681525050639142376560e01b81600b8151811062000629576200062862001952565b5b60200260200101907bffffffffffffffffffffffffffffffffffffffffffffffffffffffff191690817bffffffffffffffffffffffffffffffffffffffffffffffffffffffff1916815250506000600167ffffffffffffffff81111562000695576200069462001923565b5b604051908082528060200260200182016040528015620006d257816020015b620006be620018d7565b815260200190600190039081620006b45790505b50905060405180606001604052803073ffffffffffffffffffffffffffffffffffffffff1681526020016000600281111562000713576200071262001981565b5b8152602001838152508160008151811062000733576200073262001952565b5b602002602001018190525062000780816000604051806020016040528060008152506200076a620008c060201b6200150f1760201c565b620008ed60201b6200153c17909392919060201c565b620007ae336200079a62000b8860201b620017961760201c565b62000bb560201b620017c31790919060201c565b5050506200240e565b6000807f326d0c59a7612f6a9919e2a8ee333c80ba689d8ba2634de89c85cbb04832e70590508091505090565b63ffffffff60e01b827bffffffffffffffffffffffffffffffffffffffffffffffffffffffff1916141562000850576040517f08c379a0000000000000000000000000000000000000000000000000000000008152600401620008479062001a11565b60405180910390fd5b80836000016000847bffffffffffffffffffffffffffffffffffffffffffffffffffffffff19167bffffffffffffffffffffffffffffffffffffffffffffffffffffffff1916815260200190815260200160002060006101000a81548160ff021916908315150217905550505050565b6000807f177481ac65e4292921c69f62d1cc7f57541261e5d61c8175cf4e36a01c9bfc9390508091505090565b60008460010160009054906101000a900461ffff1661ffff16905060008190506000806007831611156200093857866002016000600384901c81526020019081526020016000205490505b60005b865181101562000adb5760008782815181106200095d576200095c62001952565b5b60200260200101519050600081602001519050600082604001515111620009bb576040517f08c379a0000000000000000000000000000000000000000000000000000000008152600401620009b29062001aa9565b60405180910390fd5b60006002811115620009d257620009d162001981565b5b816002811115620009e857620009e762001981565b5b141562000a1b5762000a0d8585848d62000bfc60201b6200180a17909392919060201c565b809550819650505062000acb565b6001600281111562000a325762000a3162001981565b5b81600281111562000a485762000a4762001981565b5b141562000a6f5762000a69828b62000ed760201b62001acb1790919060201c565b62000aca565b60028081111562000a855762000a8462001981565b5b81600281111562000a9b5762000a9a62001981565b5b141562000ac95762000ac08585848d620011d260201b62001da817909392919060201c565b80955081965050505b5b5b505080806001019150506200093b565b5082821462000b0457818760010160006101000a81548161ffff021916908361ffff1602179055505b600060078316111562000b305780876002016000600385901c8152602001908152602001600020819055505b7f8faa70878671ccd212d20771b795c50af8fd3ff6cf27f4bde57e5d4de0aeb67386868660405162000b659392919062001e36565b60405180910390a162000b7f8585620016eb60201b60201c565b50505050505050565b6000807f8a22373512790c48b83a1fe2efdd2888d4a917bcdc24d0adf63e60f67168046090508091505090565b808260000160006101000a81548173ffffffffffffffffffffffffffffffffffffffff021916908373ffffffffffffffffffffffffffffffffffffffff1602179055505050565b6000803073ffffffffffffffffffffffffffffffffffffffff16836000015173ffffffffffffffffffffffffffffffffffffffff16148062000c6a575062000c69836000015173ffffffffffffffffffffffffffffffffffffffff16620018c460201b620004e11760201c565b5b62000cac576040517f08c379a000000000000000000000000000000000000000000000000000000000815260040162000ca39062001ef7565b60405180910390fd5b60005b83604001515181101562000ec75760008460400151828151811062000cd95762000cd862001952565b5b602002602001015190506000886000016000837bffffffffffffffffffffffffffffffffffffffffffffffffffffffff19167bffffffffffffffffffffffffffffffffffffffffffffffffffffffff19168152602001908152602001600020549050600073ffffffffffffffffffffffffffffffffffffffff168160601c73ffffffffffffffffffffffffffffffffffffffff161462000db0576040517f08c379a000000000000000000000000000000000000000000000000000000000815260040162000da79062001f8f565b60405180910390fd5b8760001b866000015160601b6bffffffffffffffffffffffff191617896000016000847bffffffffffffffffffffffffffffffffffffffffffffffffffffffff19167bffffffffffffffffffffffffffffffffffffffffffffffffffffffff19168152602001908152602001600020819055506000600560078a16901b905080837bffffffffffffffffffffffffffffffffffffffffffffffffffffffff1916901c817fffffffff0000000000000000000000000000000000000000000000000000000060001b901c19891617975060e081141562000eae57878a600201600060038c901c8152602001908152602001600020819055506000801b97505b8880600101995050505050808060010191505062000caf565b5084849150915094509492505050565b62000f07816000015173ffffffffffffffffffffffffffffffffffffffff16620018c460201b620004e11760201c565b62000f49576040517f08c379a000000000000000000000000000000000000000000000000000000000815260040162000f409062002027565b60405180910390fd5b60005b816040015151811015620011cd5760008260400151828151811062000f765762000f7562001952565b5b602002602001015190506000846000016000837bffffffffffffffffffffffffffffffffffffffffffffffffffffffff19167bffffffffffffffffffffffffffffffffffffffffffffffffffffffff1916815260200190815260200160002054905060008160601c9050600073ffffffffffffffffffffffffffffffffffffffff168173ffffffffffffffffffffffffffffffffffffffff16141562001053576040517f08c379a00000000000000000000000000000000000000000000000000000000081526004016200104a9062002099565b60405180910390fd5b3073ffffffffffffffffffffffffffffffffffffffff168173ffffffffffffffffffffffffffffffffffffffff161415620010c5576040517f08c379a0000000000000000000000000000000000000000000000000000000008152600401620010bc9062002131565b60405180910390fd5b846000015173ffffffffffffffffffffffffffffffffffffffff168173ffffffffffffffffffffffffffffffffffffffff1614156200113b576040517f08c379a00000000000000000000000000000000000000000000000000000000081526004016200113290620021c9565b60405180910390fd5b846000015160601b6bffffffffffffffffffffffff19166bffffffffffffffffffffffff60001b831617866000016000857bffffffffffffffffffffffffffffffffffffffffffffffffffffffff19167bffffffffffffffffffffffffffffffffffffffffffffffffffffffff1916815260200190815260200160002081905550505050808060010191505062000f4c565b505050565b600080600073ffffffffffffffffffffffffffffffffffffffff16836000015173ffffffffffffffffffffffffffffffffffffffff16146200124b576040517f08c379a0000000000000000000000000000000000000000000000000000000008152600401620012429062002261565b60405180910390fd5b6000600386901c9050600060078716905060005b856040015151811015620016d05760008660400151828151811062001289576200128862001952565b5b6020026020010151905060008a6000016000837bffffffffffffffffffffffffffffffffffffffffffffffffffffffff19167bffffffffffffffffffffffffffffffffffffffffffffffffffffffff19168152602001908152602001600020549050600073ffffffffffffffffffffffffffffffffffffffff168160601c73ffffffffffffffffffffffffffffffffffffffff16141562001361576040517f08c379a0000000000000000000000000000000000000000000000000000000008152600401620013589062002099565b60405180910390fd5b3073ffffffffffffffffffffffffffffffffffffffff168160601c73ffffffffffffffffffffffffffffffffffffffff161415620013d6576040517f08c379a0000000000000000000000000000000000000000000000000000000008152600401620013cd9062002131565b60405180910390fd5b6000801b8914156200140d578480600190039550508a60020160008681526020019081526020016000205498506007935062001417565b8380600190039450505b6000806000600587901b8c901b9250847bffffffffffffffffffffffffffffffffffffffffffffffffffffffff1916837bffffffffffffffffffffffffffffffffffffffffffffffffffffffff1916146200153a578d6000016000847bffffffffffffffffffffffffffffffffffffffffffffffffffffffff19167bffffffffffffffffffffffffffffffffffffffffffffffffffffffff19168152602001908152602001600020546bffffffffffffffffffffffff19166bffffffffffffffffffffffff60001b8516178e6000016000857bffffffffffffffffffffffffffffffffffffffffffffffffffffffff19167bffffffffffffffffffffffffffffffffffffffffffffffffffffffff19168152602001908152602001600020819055505b8d6000016000867bffffffffffffffffffffffffffffffffffffffffffffffffffffffff19167bffffffffffffffffffffffffffffffffffffffffffffffffffffffff191681526020019081526020016000206000905560008460001c61ffff169050600381901c9250600560078216901b915050878214620016425760008e600201600084815260200190815260200160002054905081847bffffffffffffffffffffffffffffffffffffffffffffffffffffffff1916901c827fffffffff0000000000000000000000000000000000000000000000000000000060001b901c198216179050808f6002016000858152602001908152602001600020819055505062001693565b80837bffffffffffffffffffffffffffffffffffffffffffffffffffffffff1916901c817fffffffff0000000000000000000000000000000000000000000000000000000060001b901c198d16179b505b6000871415620016bd578d6002016000898152602001908152602001600020600090556000801b9b505b505050505080806001019150506200125f565b5080600383901b179650868693509350505094509492505050565b60008151141515600073ffffffffffffffffffffffffffffffffffffffff168373ffffffffffffffffffffffffffffffffffffffff161415151462001767576040517f08c379a00000000000000000000000000000000000000000000000000000000081526004016200175e90620022f9565b60405180910390fd5b600073ffffffffffffffffffffffffffffffffffffffff168273ffffffffffffffffffffffffffffffffffffffff1614620018c0573073ffffffffffffffffffffffffffffffffffffffff168273ffffffffffffffffffffffffffffffffffffffff16146200183f57620017fc8273ffffffffffffffffffffffffffffffffffffffff16620018c460201b620004e11760201c565b6200183e576040517f08c379a0000000000000000000000000000000000000000000000000000000008152600401620018359062002391565b60405180910390fd5b5b60008273ffffffffffffffffffffffffffffffffffffffff1682604051620018689190620023f5565b600060405180830381855af49150503d8060008114620018a5576040519150601f19603f3d011682016040523d82523d6000602084013e620018aa565b606091505b5050905080620018be573d6000803e3d6000fd5b505b5050565b600080823b905060008111915050919050565b6040518060600160405280600073ffffffffffffffffffffffffffffffffffffffff1681526020016000600281111562001916576200191562001981565b5b8152602001606081525090565b7f4e487b7100000000000000000000000000000000000000000000000000000000600052604160045260246000fd5b7f4e487b7100000000000000000000000000000000000000000000000000000000600052603260045260246000fd5b7f4e487b7100000000000000000000000000000000000000000000000000000000600052602160045260246000fd5b600082825260208201905092915050565b7f4552433136353a20696e76616c696420696e7465726661636520696400000000600082015250565b6000620019f9601c83620019b0565b915062001a0682620019c1565b602082019050919050565b6000602082019050818103600083015262001a2c81620019ea565b9050919050565b7f4469616d6f6e64426173653a206e6f2073656c6563746f72732073706563696660008201527f6965640000000000000000000000000000000000000000000000000000000000602082015250565b600062001a91602383620019b0565b915062001a9e8262001a33565b604082019050919050565b6000602082019050818103600083015262001ac48162001a82565b9050919050565b600081519050919050565b600082825260208201905092915050565b6000819050602082019050919050565b600073ffffffffffffffffffffffffffffffffffffffff82169050919050565b600062001b248262001af7565b9050919050565b62001b368162001b17565b82525050565b6003811062001b505762001b4f62001981565b5b50565b600081905062001b638262001b3c565b919050565b600062001b758262001b53565b9050919050565b62001b878162001b68565b82525050565b600081519050919050565b600082825260208201905092915050565b6000819050602082019050919050565b60007fffffffff0000000000000000000000000000000000000000000000000000000082169050919050565b62001bf08162001bb9565b82525050565b600062001c04838362001be5565b60208301905092915050565b6000602082019050919050565b600062001c2a8262001b8d565b62001c36818562001b98565b935062001c438362001ba9565b8060005b8381101562001c7a57815162001c5e888262001bf6565b975062001c6b8362001c10565b92505060018101905062001c47565b5085935050505092915050565b600060608301600083015162001ca1600086018262001b2b565b50602083015162001cb6602086018262001b7c565b506040830151848203604086015262001cd0828262001c1d565b9150508091505092915050565b600062001ceb838362001c87565b905092915050565b6000602082019050919050565b600062001d0d8262001acb565b62001d19818562001ad6565b93508360208202850162001d2d8562001ae7565b8060005b8581101562001d6f578484038952815162001d4d858262001cdd565b945062001d5a8362001cf3565b925060208a0199505060018101905062001d31565b50829750879550505050505092915050565b62001d8c8162001b17565b82525050565b600081519050919050565b600082825260208201905092915050565b60005b8381101562001dce57808201518184015260208101905062001db1565b8381111562001dde576000848401525b50505050565b6000601f19601f8301169050919050565b600062001e028262001d92565b62001e0e818562001d9d565b935062001e2081856020860162001dae565b62001e2b8162001de4565b840191505092915050565b6000606082019050818103600083015262001e52818662001d00565b905062001e63602083018562001d81565b818103604083015262001e77818462001df5565b9050949350505050565b7f4469616d6f6e64426173653a204144442074617267657420686173206e6f206360008201527f6f64650000000000000000000000000000000000000000000000000000000000602082015250565b600062001edf602383620019b0565b915062001eec8262001e81565b604082019050919050565b6000602082019050818103600083015262001f128162001ed0565b9050919050565b7f4469616d6f6e64426173653a2073656c6563746f7220616c726561647920616460008201527f6465640000000000000000000000000000000000000000000000000000000000602082015250565b600062001f77602383620019b0565b915062001f848262001f19565b604082019050919050565b6000602082019050818103600083015262001faa8162001f68565b9050919050565b7f4469616d6f6e64426173653a205245504c41434520746172676574206861732060008201527f6e6f20636f646500000000000000000000000000000000000000000000000000602082015250565b60006200200f602783620019b0565b91506200201c8262001fb1565b604082019050919050565b60006020820190508181036000830152620020428162002000565b9050919050565b7f4469616d6f6e64426173653a2073656c6563746f72206e6f7420666f756e6400600082015250565b600062002081601f83620019b0565b91506200208e8262002049565b602082019050919050565b60006020820190508181036000830152620020b48162002072565b9050919050565b7f4469616d6f6e64426173653a2073656c6563746f7220697320696d6d7574616260008201527f6c65000000000000000000000000000000000000000000000000000000000000602082015250565b600062002119602283620019b0565b91506200212682620020bb565b604082019050919050565b600060208201905081810360008301526200214c816200210a565b9050919050565b7f4469616d6f6e64426173653a205245504c41434520746172676574206973206960008201527f64656e746963616c000000000000000000000000000000000000000000000000602082015250565b6000620021b1602883620019b0565b9150620021be8262002153565b604082019050919050565b60006020820190508181036000830152620021e481620021a2565b9050919050565b7f4469616d6f6e64426173653a2052454d4f564520746172676574206d7573742060008201527f6265207a65726f20616464726573730000000000000000000000000000000000602082015250565b600062002249602f83620019b0565b91506200225682620021eb565b604082019050919050565b600060208201905081810360008301526200227c816200223a565b9050919050565b7f4469616d6f6e64426173653a20696e76616c696420696e697469616c697a617460008201527f696f6e20706172616d6574657273000000000000000000000000000000000000602082015250565b6000620022e1602e83620019b0565b9150620022ee8262002283565b604082019050919050565b600060208201905081810360008301526200231481620022d2565b9050919050565b7f4469616d6f6e64426173653a20696e697469616c697a6174696f6e207461726760008201527f657420686173206e6f20636f6465000000000000000000000000000000000000602082015250565b600062002379602e83620019b0565b915062002386826200231b565b604082019050919050565b60006020820190508181036000830152620023ac816200236a565b9050919050565b600081905092915050565b6000620023cb8262001d92565b620023d78185620023b3565b9350620023e981856020860162001dae565b80840191505092915050565b6000620024038284620023be565b915081905092915050565b613a59806200241e6000396000f3fe6080604052600436106100ab5760003560e01c80638ab5150a116100645780638ab5150a146102405780638da5cb5b1461026b5780639142376514610296578063adfca15e146102bf578063cdffacc6146102fc578063f2fde38b14610339576100b2565b806301ffc9a7146101425780631f931c1c1461017f5780632c408059146101a857806352ef6b2c146101d357806379ba5097146101fe5780637a0ed62714610215576100b2565b366100b257005b60006100bc610362565b90506100dd8173ffffffffffffffffffffffffffffffffffffffff166104e1565b61011c576040517f08c379a0000000000000000000000000000000000000000000000000000000008152600401610113906125fe565b60405180910390fd5b3660008037600080366000845af43d6000803e806000811461013d573d6000f35b3d6000fd5b34801561014e57600080fd5b506101696004803603810190610164919061268a565b6104f4565b60405161017691906126d2565b60405180910390f35b34801561018b57600080fd5b506101a660048036038101906101a19190612806565b610517565b005b3480156101b457600080fd5b506101bd610625565b6040516101ca91906128aa565b60405180910390f35b3480156101df57600080fd5b506101e8610658565b6040516101f59190612983565b60405180910390f35b34801561020a57600080fd5b506102136108c0565b005b34801561022157600080fd5b5061022a610a14565b6040516102379190612b62565b60405180910390f35b34801561024c57600080fd5b50610255610f7c565b60405161026291906128aa565b60405180910390f35b34801561027757600080fd5b50610280610faf565b60405161028d91906128aa565b60405180910390f35b3480156102a257600080fd5b506102bd60048036038101906102b89190612b84565b610fe2565b005b3480156102cb57600080fd5b506102e660048036038101906102e19190612b84565b6110c8565b6040516102f39190612c20565b60405180910390f35b34801561030857600080fd5b50610323600480360381019061031e919061268a565b6112ec565b60405161033091906128aa565b60405180910390f35b34801561034557600080fd5b50610360600480360381019061035b9190612b84565b611353565b005b60008060007f177481ac65e4292921c69f62d1cc7f57541261e5d61c8175cf4e36a01c9bfc939050809150600082600001600080357fffffffff00000000000000000000000000000000000000000000000000000000167bffffffffffffffffffffffffffffffffffffffffffffffffffffffff19167bffffffffffffffffffffffffffffffffffffffffffffffffffffffff191681526020019081526020016000205460601c9050600073ffffffffffffffffffffffffffffffffffffffff168173ffffffffffffffffffffffffffffffffffffffff1614156104d8578260030160009054906101000a900473ffffffffffffffffffffffffffffffffffffffff169050600073ffffffffffffffffffffffffffffffffffffffff168173ffffffffffffffffffffffffffffffffffffffff1614156104d7576040517f08c379a00000000000000000000000000000000000000000000000000000000081526004016104ce90612cb4565b60405180910390fd5b5b80935050505090565b600080823b905060008111915050919050565b600061051082610502611409565b6122ad90919063ffffffff16565b9050919050565b61051f611796565b60000160009054906101000a900473ffffffffffffffffffffffffffffffffffffffff1673ffffffffffffffffffffffffffffffffffffffff163373ffffffffffffffffffffffffffffffffffffffff16146105b0576040517f08c379a00000000000000000000000000000000000000000000000000000000081526004016105a790612d20565b60405180910390fd5b61061e8585906105c09190612ff1565b8484848080601f016020809104026020016040519081016040528093929190818152602001838380828437600081840152601f19601f8201169050808301925050505050505061060e61150f565b61153c909392919063ffffffff16565b5050505050565b600061062f61150f565b60030160009054906101000a900473ffffffffffffffffffffffffffffffffffffffff16905090565b6060600061066461150f565b90508060010160009054906101000a900461ffff1661ffff1667ffffffffffffffff81111561069657610695612d51565b5b6040519080825280602002602001820160405280156106c45781602001602082028036833780820191505090505b50915060008060005b8360010160009054906101000a900461ffff1661ffff168210156108b657600084600201600083815260200190815260200160002054905060005b60088110156108a157838061071c9061303f565b9450508560010160009054906101000a900461ffff1661ffff16841115610742576108a1565b6000600582901b83901b90506000876000016000837bffffffffffffffffffffffffffffffffffffffffffffffffffffffff19167bffffffffffffffffffffffffffffffffffffffffffffffffffffffff191681526020019081526020016000205460601c90506000805b8881101561081f578a81815181106107c8576107c7613088565b5b602002602001015173ffffffffffffffffffffffffffffffffffffffff168373ffffffffffffffffffffffffffffffffffffffff16141561080c576001915061081f565b80806108179061303f565b9150506107ad565b50801561082e5750505061088e565b818a898151811061084257610841613088565b5b602002602001019073ffffffffffffffffffffffffffffffffffffffff16908173ffffffffffffffffffffffffffffffffffffffff168152505087806108879061303f565b9850505050505b80806108999061303f565b915050610708565b505080806108ae9061303f565b9150506106cd565b5081845250505090565b6108c8612318565b60000160009054906101000a900473ffffffffffffffffffffffffffffffffffffffff1673ffffffffffffffffffffffffffffffffffffffff163373ffffffffffffffffffffffffffffffffffffffff1614610959576040517f08c379a000000000000000000000000000000000000000000000000000000000815260040161095090613129565b60405180910390fd5b6000610963611796565b90503373ffffffffffffffffffffffffffffffffffffffff168160000160009054906101000a900473ffffffffffffffffffffffffffffffffffffffff1673ffffffffffffffffffffffffffffffffffffffff167f8be0079c531659141344cd1fd0a4f28419497f9722a3daafe3b4186f6b6457e060405160405180910390a36109f633826117c390919063ffffffff16565b610a116000610a03612318565b61234590919063ffffffff16565b50565b60606000610a2061150f565b90508060010160009054906101000a900461ffff1661ffff1667ffffffffffffffff811115610a5257610a51612d51565b5b604051908082528060200260200182016040528015610a8b57816020015b610a7861254b565b815260200190600190039081610a705790505b50915060008160010160009054906101000a900461ffff1661ffff1667ffffffffffffffff811115610ac057610abf612d51565b5b604051908082528060200260200182016040528015610aee5781602001602082028036833780820191505090505b50905060008060005b8460010160009054906101000a900461ffff1661ffff16821015610f0857600085600201600083815260200190815260200160002054905060005b6008811015610ef3578380610b469061303f565b9450508660010160009054906101000a900461ffff1661ffff16841115610b6c57610ef3565b6000600582901b83901b90506000886000016000837bffffffffffffffffffffffffffffffffffffffffffffffffffffffff19167bffffffffffffffffffffffffffffffffffffffffffffffffffffffff191681526020019081526020016000205460601c90506000805b88811015610d44578273ffffffffffffffffffffffffffffffffffffffff168c8281518110610c0957610c08613088565b5b60200260200101516000015173ffffffffffffffffffffffffffffffffffffffff161415610d3157838c8281518110610c4557610c44613088565b5b6020026020010151602001518b8381518110610c6457610c63613088565b5b602002602001015160ff1681518110610c8057610c7f613088565b5b60200260200101907bffffffffffffffffffffffffffffffffffffffffffffffffffffffff191690817bffffffffffffffffffffffffffffffffffffffffffffffffffffffff19168152505060ff8a8281518110610ce157610ce0613088565b5b602002602001015160ff1610610cf657600080fd5b898181518110610d0957610d08613088565b5b602002602001018051809190610d1e90613156565b60ff1660ff168152505060019150610d44565b8080610d3c9061303f565b915050610bd7565b508015610d5357505050610ee0565b818b8981518110610d6757610d66613088565b5b60200260200101516000019073ffffffffffffffffffffffffffffffffffffffff16908173ffffffffffffffffffffffffffffffffffffffff16815250508960010160009054906101000a900461ffff1661ffff1667ffffffffffffffff811115610dd557610dd4612d51565b5b604051908082528060200260200182016040528015610e035781602001602082028036833780820191505090505b508b8981518110610e1757610e16613088565b5b602002602001015160200181905250828b8981518110610e3a57610e39613088565b5b602002602001015160200151600081518110610e5957610e58613088565b5b60200260200101907bffffffffffffffffffffffffffffffffffffffffffffffffffffffff191690817bffffffffffffffffffffffffffffffffffffffffffffffffffffffff1916815250506001898981518110610eba57610eb9613088565b5b602002602001019060ff16908160ff16815250508780610ed99061303f565b9850505050505b8080610eeb9061303f565b915050610b32565b50508080610f009061303f565b915050610af7565b5060005b82811015610f71576000848281518110610f2957610f28613088565b5b602002602001015160ff1690506000878381518110610f4b57610f4a613088565b5b602002602001015160200151905081815250508080610f699061303f565b915050610f0c565b508185525050505090565b6000610f86612318565b60000160009054906101000a900473ffffffffffffffffffffffffffffffffffffffff16905090565b6000610fb9611796565b60000160009054906101000a900473ffffffffffffffffffffffffffffffffffffffff16905090565b610fea611796565b60000160009054906101000a900473ffffffffffffffffffffffffffffffffffffffff1673ffffffffffffffffffffffffffffffffffffffff163373ffffffffffffffffffffffffffffffffffffffff161461107b576040517f08c379a000000000000000000000000000000000000000000000000000000000815260040161107290612d20565b60405180910390fd5b8061108461150f565b60030160006101000a81548173ffffffffffffffffffffffffffffffffffffffff021916908373ffffffffffffffffffffffffffffffffffffffff16021790555050565b606060006110d461150f565b90508060010160009054906101000a900461ffff1661ffff1667ffffffffffffffff81111561110657611105612d51565b5b6040519080825280602002602001820160405280156111345781602001602082028036833780820191505090505b50915060008060005b8360010160009054906101000a900461ffff1661ffff168210156112e057600084600201600083815260200190815260200160002054905060005b60088110156112cb57838061118c9061303f565b9450508560010160009054906101000a900461ffff1661ffff168411156111b2576112cb565b6000600582901b83901b9050866000016000827bffffffffffffffffffffffffffffffffffffffffffffffffffffffff19167bffffffffffffffffffffffffffffffffffffffffffffffffffffffff191681526020019081526020016000205460601c73ffffffffffffffffffffffffffffffffffffffff168973ffffffffffffffffffffffffffffffffffffffff1614156112b7578088878151811061125c5761125b613088565b5b60200260200101907bffffffffffffffffffffffffffffffffffffffffffffffffffffffff191690817bffffffffffffffffffffffffffffffffffffffffffffffffffffffff19168152505085806112b39061303f565b9650505b5080806112c39061303f565b915050611178565b505080806112d89061303f565b91505061113d565b50818452505050919050565b60006112f661150f565b6000016000837bffffffffffffffffffffffffffffffffffffffffffffffffffffffff19167bffffffffffffffffffffffffffffffffffffffffffffffffffffffff191681526020019081526020016000205460601c9050919050565b61135b611796565b60000160009054906101000a900473ffffffffffffffffffffffffffffffffffffffff1673ffffffffffffffffffffffffffffffffffffffff163373ffffffffffffffffffffffffffffffffffffffff16146113ec576040517f08c379a00000000000000000000000000000000000000000000000000000000081526004016113e390612d20565b60405180910390fd5b611406816113f8612318565b61234590919063ffffffff16565b50565b6000807f326d0c59a7612f6a9919e2a8ee333c80ba689d8ba2634de89c85cbb04832e70590508091505090565b63ffffffff60e01b827bffffffffffffffffffffffffffffffffffffffffffffffffffffffff1916141561149f576040517f08c379a0000000000000000000000000000000000000000000000000000000008152600401611496906131cc565b60405180910390fd5b80836000016000847bffffffffffffffffffffffffffffffffffffffffffffffffffffffff19167bffffffffffffffffffffffffffffffffffffffffffffffffffffffff1916815260200190815260200160002060006101000a81548160ff021916908315150217905550505050565b6000807f177481ac65e4292921c69f62d1cc7f57541261e5d61c8175cf4e36a01c9bfc9390508091505090565b60008460010160009054906101000a900461ffff1661ffff169050600081905060008060078316111561158657866002016000600384901c81526020019081526020016000205490505b60005b86518110156116f55760008782815181106115a7576115a6613088565b5b60200260200101519050600081602001519050600082604001515111611602576040517f08c379a00000000000000000000000000000000000000000000000000000000081526004016115f99061325e565b60405180910390fd5b600060028111156116165761161561327e565b5b8160028111156116295761162861327e565b5b1415611653576116468585848d61180a909392919063ffffffff16565b80955081965050506116e6565b600160028111156116675761166661327e565b5b81600281111561167a5761167961327e565b5b141561169857611693828b611acb90919063ffffffff16565b6116e5565b6002808111156116ab576116aa61327e565b5b8160028111156116be576116bd61327e565b5b14156116e4576116db8585848d611da8909392919063ffffffff16565b80955081965050505b5b5b50508080600101915050611589565b5082821461171d57818760010160006101000a81548161ffff021916908361ffff1602179055505b60006007831611156117485780876002016000600385901c8152602001908152602001600020819055505b7f8faa70878671ccd212d20771b795c50af8fd3ff6cf27f4bde57e5d4de0aeb67386868660405161177b9392919061348f565b60405180910390a161178d858561238c565b50505050505050565b6000807f8a22373512790c48b83a1fe2efdd2888d4a917bcdc24d0adf63e60f67168046090508091505090565b808260000160006101000a81548173ffffffffffffffffffffffffffffffffffffffff021916908373ffffffffffffffffffffffffffffffffffffffff1602179055505050565b6000803073ffffffffffffffffffffffffffffffffffffffff16836000015173ffffffffffffffffffffffffffffffffffffffff16148061186a5750611869836000015173ffffffffffffffffffffffffffffffffffffffff166104e1565b5b6118a9576040517f08c379a00000000000000000000000000000000000000000000000000000000081526004016118a090613546565b60405180910390fd5b60005b836040015151811015611abb576000846040015182815181106118d2576118d1613088565b5b602002602001015190506000886000016000837bffffffffffffffffffffffffffffffffffffffffffffffffffffffff19167bffffffffffffffffffffffffffffffffffffffffffffffffffffffff19168152602001908152602001600020549050600073ffffffffffffffffffffffffffffffffffffffff168160601c73ffffffffffffffffffffffffffffffffffffffff16146119a6576040517f08c379a000000000000000000000000000000000000000000000000000000000815260040161199d906135d8565b60405180910390fd5b8760001b866000015160601b6bffffffffffffffffffffffff191617896000016000847bffffffffffffffffffffffffffffffffffffffffffffffffffffffff19167bffffffffffffffffffffffffffffffffffffffffffffffffffffffff19168152602001908152602001600020819055506000600560078a16901b905080837bffffffffffffffffffffffffffffffffffffffffffffffffffffffff1916901c817fffffffff0000000000000000000000000000000000000000000000000000000060001b901c19891617975060e0811415611aa357878a600201600060038c901c8152602001908152602001600020819055506000801b97505b888060010199505050505080806001019150506118ac565b5084849150915094509492505050565b611aee816000015173ffffffffffffffffffffffffffffffffffffffff166104e1565b611b2d576040517f08c379a0000000000000000000000000000000000000000000000000000000008152600401611b249061366a565b60405180910390fd5b60005b816040015151811015611da357600082604001518281518110611b5657611b55613088565b5b602002602001015190506000846000016000837bffffffffffffffffffffffffffffffffffffffffffffffffffffffff19167bffffffffffffffffffffffffffffffffffffffffffffffffffffffff1916815260200190815260200160002054905060008160601c9050600073ffffffffffffffffffffffffffffffffffffffff168173ffffffffffffffffffffffffffffffffffffffff161415611c30576040517f08c379a0000000000000000000000000000000000000000000000000000000008152600401611c27906136d6565b60405180910390fd5b3073ffffffffffffffffffffffffffffffffffffffff168173ffffffffffffffffffffffffffffffffffffffff161415611c9f576040517f08c379a0000000000000000000000000000000000000000000000000000000008152600401611c9690613768565b60405180910390fd5b846000015173ffffffffffffffffffffffffffffffffffffffff168173ffffffffffffffffffffffffffffffffffffffff161415611d12576040517f08c379a0000000000000000000000000000000000000000000000000000000008152600401611d09906137fa565b60405180910390fd5b846000015160601b6bffffffffffffffffffffffff19166bffffffffffffffffffffffff60001b831617866000016000857bffffffffffffffffffffffffffffffffffffffffffffffffffffffff19167bffffffffffffffffffffffffffffffffffffffffffffffffffffffff19168152602001908152602001600020819055505050508080600101915050611b30565b505050565b600080600073ffffffffffffffffffffffffffffffffffffffff16836000015173ffffffffffffffffffffffffffffffffffffffff1614611e1e576040517f08c379a0000000000000000000000000000000000000000000000000000000008152600401611e159061388c565b60405180910390fd5b6000600386901c9050600060078716905060005b85604001515181101561229257600086604001518281518110611e5857611e57613088565b5b6020026020010151905060008a6000016000837bffffffffffffffffffffffffffffffffffffffffffffffffffffffff19167bffffffffffffffffffffffffffffffffffffffffffffffffffffffff19168152602001908152602001600020549050600073ffffffffffffffffffffffffffffffffffffffff168160601c73ffffffffffffffffffffffffffffffffffffffff161415611f2d576040517f08c379a0000000000000000000000000000000000000000000000000000000008152600401611f24906136d6565b60405180910390fd5b3073ffffffffffffffffffffffffffffffffffffffff168160601c73ffffffffffffffffffffffffffffffffffffffff161415611f9f576040517f08c379a0000000000000000000000000000000000000000000000000000000008152600401611f9690613768565b60405180910390fd5b6000801b891415611fd4578480600190039550508a600201600086815260200190815260200160002054985060079350611fde565b8380600190039450505b6000806000600587901b8c901b9250847bffffffffffffffffffffffffffffffffffffffffffffffffffffffff1916837bffffffffffffffffffffffffffffffffffffffffffffffffffffffff191614612100578d6000016000847bffffffffffffffffffffffffffffffffffffffffffffffffffffffff19167bffffffffffffffffffffffffffffffffffffffffffffffffffffffff19168152602001908152602001600020546bffffffffffffffffffffffff19166bffffffffffffffffffffffff60001b8516178e6000016000857bffffffffffffffffffffffffffffffffffffffffffffffffffffffff19167bffffffffffffffffffffffffffffffffffffffffffffffffffffffff19168152602001908152602001600020819055505b8d6000016000867bffffffffffffffffffffffffffffffffffffffffffffffffffffffff19167bffffffffffffffffffffffffffffffffffffffffffffffffffffffff191681526020019081526020016000206000905560008460001c61ffff169050600381901c9250600560078216901b9150508782146122065760008e600201600084815260200190815260200160002054905081847bffffffffffffffffffffffffffffffffffffffffffffffffffffffff1916901c827fffffffff0000000000000000000000000000000000000000000000000000000060001b901c198216179050808f60020160008581526020019081526020016000208190555050612257565b80837bffffffffffffffffffffffffffffffffffffffffffffffffffffffff1916901c817fffffffff0000000000000000000000000000000000000000000000000000000060001b901c198d16179b505b6000871415612280578d6002016000898152602001908152602001600020600090556000801b9b505b50505050508080600101915050611e32565b5080600383901b179650868693509350505094509492505050565b6000826000016000837bffffffffffffffffffffffffffffffffffffffffffffffffffffffff19167bffffffffffffffffffffffffffffffffffffffffffffffffffffffff1916815260200190815260200160002060009054906101000a900460ff16905092915050565b6000807f24aa1f7b31fd188a8d3ecfb06bc55c806040e59b03bd4396283442fce661789090508091505090565b808260000160006101000a81548173ffffffffffffffffffffffffffffffffffffffff021916908373ffffffffffffffffffffffffffffffffffffffff1602179055505050565b60008151141515600073ffffffffffffffffffffffffffffffffffffffff168373ffffffffffffffffffffffffffffffffffffffff1614151514612405576040517f08c379a00000000000000000000000000000000000000000000000000000000081526004016123fc9061391e565b60405180910390fd5b600073ffffffffffffffffffffffffffffffffffffffff168273ffffffffffffffffffffffffffffffffffffffff1614612547573073ffffffffffffffffffffffffffffffffffffffff168273ffffffffffffffffffffffffffffffffffffffff16146124cb5761248b8273ffffffffffffffffffffffffffffffffffffffff166104e1565b6124ca576040517f08c379a00000000000000000000000000000000000000000000000000000000081526004016124c1906139b0565b60405180910390fd5b5b60008273ffffffffffffffffffffffffffffffffffffffff16826040516124f29190613a0c565b600060405180830381855af49150503d806000811461252d576040519150601f19603f3d011682016040523d82523d6000602084013e612532565b606091505b5050905080612545573d6000803e3d6000fd5b505b5050565b6040518060400160405280600073ffffffffffffffffffffffffffffffffffffffff168152602001606081525090565b600082825260208201905092915050565b7f50726f78793a20696d706c656d656e746174696f6e206d75737420626520636f60008201527f6e74726163740000000000000000000000000000000000000000000000000000602082015250565b60006125e860268361257b565b91506125f38261258c565b604082019050919050565b60006020820190508181036000830152612617816125db565b9050919050565b6000604051905090565b600080fd5b600080fd5b60007fffffffff0000000000000000000000000000000000000000000000000000000082169050919050565b61266781612632565b811461267257600080fd5b50565b6000813590506126848161265e565b92915050565b6000602082840312156126a05761269f612628565b5b60006126ae84828501612675565b91505092915050565b60008115159050919050565b6126cc816126b7565b82525050565b60006020820190506126e760008301846126c3565b92915050565b600080fd5b600080fd5b600080fd5b60008083601f840112612712576127116126ed565b5b8235905067ffffffffffffffff81111561272f5761272e6126f2565b5b60208301915083602082028301111561274b5761274a6126f7565b5b9250929050565b600073ffffffffffffffffffffffffffffffffffffffff82169050919050565b600061277d82612752565b9050919050565b61278d81612772565b811461279857600080fd5b50565b6000813590506127aa81612784565b92915050565b60008083601f8401126127c6576127c56126ed565b5b8235905067ffffffffffffffff8111156127e3576127e26126f2565b5b6020830191508360018202830111156127ff576127fe6126f7565b5b9250929050565b60008060008060006060868803121561282257612821612628565b5b600086013567ffffffffffffffff8111156128405761283f61262d565b5b61284c888289016126fc565b9550955050602061285f8882890161279b565b935050604086013567ffffffffffffffff8111156128805761287f61262d565b5b61288c888289016127b0565b92509250509295509295909350565b6128a481612772565b82525050565b60006020820190506128bf600083018461289b565b92915050565b600081519050919050565b600082825260208201905092915050565b6000819050602082019050919050565b6128fa81612772565b82525050565b600061290c83836128f1565b60208301905092915050565b6000602082019050919050565b6000612930826128c5565b61293a81856128d0565b9350612945836128e1565b8060005b8381101561297657815161295d8882612900565b975061296883612918565b925050600181019050612949565b5085935050505092915050565b6000602082019050818103600083015261299d8184612925565b905092915050565b600081519050919050565b600082825260208201905092915050565b6000819050602082019050919050565b600081519050919050565b600082825260208201905092915050565b6000819050602082019050919050565b612a0681612632565b82525050565b6000612a1883836129fd565b60208301905092915050565b6000602082019050919050565b6000612a3c826129d1565b612a4681856129dc565b9350612a51836129ed565b8060005b83811015612a82578151612a698882612a0c565b9750612a7483612a24565b925050600181019050612a55565b5085935050505092915050565b6000604083016000830151612aa760008601826128f1565b5060208301518482036020860152612abf8282612a31565b9150508091505092915050565b6000612ad88383612a8f565b905092915050565b6000602082019050919050565b6000612af8826129a5565b612b0281856129b0565b935083602082028501612b14856129c1565b8060005b85811015612b505784840389528151612b318582612acc565b9450612b3c83612ae0565b925060208a01995050600181019050612b18565b50829750879550505050505092915050565b60006020820190508181036000830152612b7c8184612aed565b905092915050565b600060208284031215612b9a57612b99612628565b5b6000612ba88482850161279b565b91505092915050565b600082825260208201905092915050565b6000612bcd826129d1565b612bd78185612bb1565b9350612be2836129ed565b8060005b83811015612c13578151612bfa8882612a0c565b9750612c0583612a24565b925050600181019050612be6565b5085935050505092915050565b60006020820190508181036000830152612c3a8184612bc2565b905092915050565b7f4469616d6f6e64426173653a206e6f20666163657420666f756e6420666f722060008201527f66756e6374696f6e207369676e61747572650000000000000000000000000000602082015250565b6000612c9e60328361257b565b9150612ca982612c42565b604082019050919050565b60006020820190508181036000830152612ccd81612c91565b9050919050565b7f4f776e61626c653a2073656e646572206d757374206265206f776e6572000000600082015250565b6000612d0a601d8361257b565b9150612d1582612cd4565b602082019050919050565b60006020820190508181036000830152612d3981612cfd565b9050919050565b6000601f19601f8301169050919050565b7f4e487b7100000000000000000000000000000000000000000000000000000000600052604160045260246000fd5b612d8982612d40565b810181811067ffffffffffffffff82111715612da857612da7612d51565b5b80604052505050565b6000612dbb61261e565b9050612dc78282612d80565b919050565b600067ffffffffffffffff821115612de757612de6612d51565b5b602082029050602081019050919050565b600080fd5b600080fd5b60038110612e0f57600080fd5b50565b600081359050612e2181612e02565b92915050565b600067ffffffffffffffff821115612e4257612e41612d51565b5b602082029050602081019050919050565b6000612e66612e6184612e27565b612db1565b90508083825260208201905060208402830185811115612e8957612e886126f7565b5b835b81811015612eb25780612e9e8882612675565b845260208401935050602081019050612e8b565b5050509392505050565b600082601f830112612ed157612ed06126ed565b5b8135612ee1848260208601612e53565b91505092915050565b600060608284031215612f0057612eff612df8565b5b612f0a6060612db1565b90506000612f1a8482850161279b565b6000830152506020612f2e84828501612e12565b602083015250604082013567ffffffffffffffff811115612f5257612f51612dfd565b5b612f5e84828501612ebc565b60408301525092915050565b6000612f7d612f7884612dcc565b612db1565b90508083825260208201905060208402830185811115612fa057612f9f6126f7565b5b835b81811015612fe757803567ffffffffffffffff811115612fc557612fc46126ed565b5b808601612fd28982612eea565b85526020850194505050602081019050612fa2565b5050509392505050565b6000612ffe368484612f6a565b905092915050565b7f4e487b7100000000000000000000000000000000000000000000000000000000600052601160045260246000fd5b6000819050919050565b600061304a82613035565b91507fffffffffffffffffffffffffffffffffffffffffffffffffffffffffffffffff82141561307d5761307c613006565b5b600182019050919050565b7f4e487b7100000000000000000000000000000000000000000000000000000000600052603260045260246000fd5b7f536166654f776e61626c653a2073656e646572206d757374206265206e6f6d6960008201527f6e6565206f776e65720000000000000000000000000000000000000000000000602082015250565b600061311360298361257b565b915061311e826130b7565b604082019050919050565b6000602082019050818103600083015261314281613106565b9050919050565b600060ff82169050919050565b600061316182613149565b915060ff82141561317557613174613006565b5b600182019050919050565b7f4552433136353a20696e76616c696420696e7465726661636520696400000000600082015250565b60006131b6601c8361257b565b91506131c182613180565b602082019050919050565b600060208201905081810360008301526131e5816131a9565b9050919050565b7f4469616d6f6e64426173653a206e6f2073656c6563746f72732073706563696660008201527f6965640000000000000000000000000000000000000000000000000000000000602082015250565b600061324860238361257b565b9150613253826131ec565b604082019050919050565b600060208201905081810360008301526132778161323b565b9050919050565b7f4e487b7100000000000000000000000000000000000000000000000000000000600052602160045260246000fd5b600081519050919050565b600082825260208201905092915050565b6000819050602082019050919050565b600381106132ea576132e961327e565b5b50565b60008190506132fb826132d9565b919050565b600061330b826132ed565b9050919050565b61331b81613300565b82525050565b600060608301600083015161333960008601826128f1565b50602083015161334c6020860182613312565b50604083015184820360408601526133648282612a31565b9150508091505092915050565b600061337d8383613321565b905092915050565b6000602082019050919050565b600061339d826132ad565b6133a781856132b8565b9350836020820285016133b9856132c9565b8060005b858110156133f557848403895281516133d68582613371565b94506133e183613385565b925060208a019950506001810190506133bd565b50829750879550505050505092915050565b600081519050919050565b600082825260208201905092915050565b60005b83811015613441578082015181840152602081019050613426565b83811115613450576000848401525b50505050565b600061346182613407565b61346b8185613412565b935061347b818560208601613423565b61348481612d40565b840191505092915050565b600060608201905081810360008301526134a98186613392565b90506134b8602083018561289b565b81810360408301526134ca8184613456565b9050949350505050565b7f4469616d6f6e64426173653a204144442074617267657420686173206e6f206360008201527f6f64650000000000000000000000000000000000000000000000000000000000602082015250565b600061353060238361257b565b915061353b826134d4565b604082019050919050565b6000602082019050818103600083015261355f81613523565b9050919050565b7f4469616d6f6e64426173653a2073656c6563746f7220616c726561647920616460008201527f6465640000000000000000000000000000000000000000000000000000000000602082015250565b60006135c260238361257b565b91506135cd82613566565b604082019050919050565b600060208201905081810360008301526135f1816135b5565b9050919050565b7f4469616d6f6e64426173653a205245504c41434520746172676574206861732060008201527f6e6f20636f646500000000000000000000000000000000000000000000000000602082015250565b600061365460278361257b565b915061365f826135f8565b604082019050919050565b6000602082019050818103600083015261368381613647565b9050919050565b7f4469616d6f6e64426173653a2073656c6563746f72206e6f7420666f756e6400600082015250565b60006136c0601f8361257b565b91506136cb8261368a565b602082019050919050565b600060208201905081810360008301526136ef816136b3565b9050919050565b7f4469616d6f6e64426173653a2073656c6563746f7220697320696d6d7574616260008201527f6c65000000000000000000000000000000000000000000000000000000000000602082015250565b600061375260228361257b565b915061375d826136f6565b604082019050919050565b6000602082019050818103600083015261378181613745565b9050919050565b7f4469616d6f6e64426173653a205245504c41434520746172676574206973206960008201527f64656e746963616c000000000000000000000000000000000000000000000000602082015250565b60006137e460288361257b565b91506137ef82613788565b604082019050919050565b60006020820190508181036000830152613813816137d7565b9050919050565b7f4469616d6f6e64426173653a2052454d4f564520746172676574206d7573742060008201527f6265207a65726f20616464726573730000000000000000000000000000000000602082015250565b6000613876602f8361257b565b91506138818261381a565b604082019050919050565b600060208201905081810360008301526138a581613869565b9050919050565b7f4469616d6f6e64426173653a20696e76616c696420696e697469616c697a617460008201527f696f6e20706172616d6574657273000000000000000000000000000000000000602082015250565b6000613908602e8361257b565b9150613913826138ac565b604082019050919050565b60006020820190508181036000830152613937816138fb565b9050919050565b7f4469616d6f6e64426173653a20696e697469616c697a6174696f6e207461726760008201527f657420686173206e6f20636f6465000000000000000000000000000000000000602082015250565b600061399a602e8361257b565b91506139a58261393e565b604082019050919050565b600060208201905081810360008301526139c98161398d565b9050919050565b600081905092915050565b60006139e682613407565b6139f081856139d0565b9350613a00818560208601613423565b80840191505092915050565b6000613a1882846139db565b91508190509291505056fea2646970667358221220e4e373330d41a942dddd04043e656185031cb46b2bc04d3d98303c3d193e831064736f6c634300080c0033",
  "linkReferences": {},
  "deployedLinkReferences": {}
}